{
  "contractName": "FlyerOwnership",
  "abi": [
    {
      "inputs": [],
      "stateMutability": "nonpayable",
      "type": "constructor"
    },
    {
      "anonymous": false,
      "inputs": [
        {
          "indexed": true,
          "internalType": "address",
          "name": "owner",
          "type": "address"
        },
        {
          "indexed": true,
          "internalType": "address",
          "name": "approved",
          "type": "address"
        },
        {
          "indexed": true,
          "internalType": "uint256",
          "name": "tokenId",
          "type": "uint256"
        }
      ],
      "name": "Approval",
      "type": "event"
    },
    {
      "anonymous": false,
      "inputs": [
        {
          "indexed": true,
          "internalType": "address",
          "name": "owner",
          "type": "address"
        },
        {
          "indexed": true,
          "internalType": "address",
          "name": "operator",
          "type": "address"
        },
        {
          "indexed": false,
          "internalType": "bool",
          "name": "approved",
          "type": "bool"
        }
      ],
      "name": "ApprovalForAll",
      "type": "event"
    },
    {
      "anonymous": false,
      "inputs": [
        {
          "indexed": false,
          "internalType": "uint256",
          "name": "id",
          "type": "uint256"
        },
        {
          "indexed": false,
          "internalType": "string",
          "name": "name",
          "type": "string"
        },
        {
          "indexed": false,
          "internalType": "string",
          "name": "description",
          "type": "string"
        },
        {
          "indexed": false,
          "internalType": "string",
          "name": "image",
          "type": "string"
        },
        {
          "indexed": false,
          "internalType": "uint256",
          "name": "price",
          "type": "uint256"
        }
      ],
      "name": "NewFlyer",
      "type": "event"
    },
    {
      "anonymous": false,
      "inputs": [
        {
          "indexed": true,
          "internalType": "address",
          "name": "previousOwner",
          "type": "address"
        },
        {
          "indexed": true,
          "internalType": "address",
          "name": "newOwner",
          "type": "address"
        }
      ],
      "name": "OwnershipTransferred",
      "type": "event"
    },
    {
      "anonymous": false,
      "inputs": [
        {
          "indexed": true,
          "internalType": "address",
          "name": "from",
          "type": "address"
        },
        {
          "indexed": true,
          "internalType": "address",
          "name": "to",
          "type": "address"
        },
        {
          "indexed": true,
          "internalType": "uint256",
          "name": "tokenId",
          "type": "uint256"
        }
      ],
      "name": "Transfer",
      "type": "event"
    },
    {
      "inputs": [
        {
          "internalType": "address",
          "name": "to",
          "type": "address"
        },
        {
          "internalType": "uint256",
          "name": "tokenId",
          "type": "uint256"
        }
      ],
      "name": "approve",
      "outputs": [],
      "stateMutability": "nonpayable",
      "type": "function"
    },
    {
      "inputs": [
        {
          "internalType": "string",
          "name": "_name",
          "type": "string"
        },
        {
          "internalType": "string",
          "name": "_description",
          "type": "string"
        },
        {
          "internalType": "string",
          "name": "_image",
          "type": "string"
        },
        {
          "internalType": "uint256",
          "name": "_price",
          "type": "uint256"
        }
      ],
      "name": "createFlyer",
      "outputs": [],
      "stateMutability": "nonpayable",
      "type": "function"
    },
    {
      "inputs": [
        {
          "internalType": "uint256",
          "name": "",
          "type": "uint256"
        }
      ],
      "name": "flyerToOwner",
      "outputs": [
        {
          "internalType": "address",
          "name": "",
          "type": "address"
        }
      ],
      "stateMutability": "view",
      "type": "function"
    },
    {
      "inputs": [
        {
          "internalType": "uint256",
          "name": "",
          "type": "uint256"
        }
      ],
      "name": "flyers",
      "outputs": [
        {
          "internalType": "string",
          "name": "name",
          "type": "string"
        },
        {
          "internalType": "string",
          "name": "description",
          "type": "string"
        },
        {
          "internalType": "string",
          "name": "image",
          "type": "string"
        },
        {
          "internalType": "uint256",
          "name": "price",
          "type": "uint256"
        }
      ],
      "stateMutability": "view",
      "type": "function"
    },
    {
      "inputs": [
        {
          "internalType": "uint256",
          "name": "tokenId",
          "type": "uint256"
        }
      ],
      "name": "getApproved",
      "outputs": [
        {
          "internalType": "address",
          "name": "",
          "type": "address"
        }
      ],
      "stateMutability": "view",
      "type": "function"
    },
    {
      "inputs": [
        {
          "internalType": "address",
          "name": "owner",
          "type": "address"
        },
        {
          "internalType": "address",
          "name": "operator",
          "type": "address"
        }
      ],
      "name": "isApprovedForAll",
      "outputs": [
        {
          "internalType": "bool",
          "name": "",
          "type": "bool"
        }
      ],
      "stateMutability": "view",
      "type": "function"
    },
    {
      "inputs": [],
      "name": "name",
      "outputs": [
        {
          "internalType": "string",
          "name": "",
          "type": "string"
        }
      ],
      "stateMutability": "view",
      "type": "function"
    },
    {
      "inputs": [],
      "name": "owner",
      "outputs": [
        {
          "internalType": "address",
          "name": "",
          "type": "address"
        }
      ],
      "stateMutability": "view",
      "type": "function"
    },
    {
      "inputs": [
        {
          "internalType": "address",
          "name": "",
          "type": "address"
        }
      ],
      "name": "ownerFlyerCount",
      "outputs": [
        {
          "internalType": "uint256",
          "name": "",
          "type": "uint256"
        }
      ],
      "stateMutability": "view",
      "type": "function"
    },
    {
      "inputs": [],
      "name": "renounceOwnership",
      "outputs": [],
      "stateMutability": "nonpayable",
      "type": "function"
    },
    {
      "inputs": [
        {
          "internalType": "address",
          "name": "from",
          "type": "address"
        },
        {
          "internalType": "address",
          "name": "to",
          "type": "address"
        },
        {
          "internalType": "uint256",
          "name": "tokenId",
          "type": "uint256"
        }
      ],
      "name": "safeTransferFrom",
      "outputs": [],
      "stateMutability": "nonpayable",
      "type": "function"
    },
    {
      "inputs": [
        {
          "internalType": "address",
          "name": "from",
          "type": "address"
        },
        {
          "internalType": "address",
          "name": "to",
          "type": "address"
        },
        {
          "internalType": "uint256",
          "name": "tokenId",
          "type": "uint256"
        },
        {
          "internalType": "bytes",
          "name": "_data",
          "type": "bytes"
        }
      ],
      "name": "safeTransferFrom",
      "outputs": [],
      "stateMutability": "nonpayable",
      "type": "function"
    },
    {
      "inputs": [
        {
          "internalType": "address",
          "name": "operator",
          "type": "address"
        },
        {
          "internalType": "bool",
          "name": "approved",
          "type": "bool"
        }
      ],
      "name": "setApprovalForAll",
      "outputs": [],
      "stateMutability": "nonpayable",
      "type": "function"
    },
    {
      "inputs": [
        {
          "internalType": "bytes4",
          "name": "interfaceId",
          "type": "bytes4"
        }
      ],
      "name": "supportsInterface",
      "outputs": [
        {
          "internalType": "bool",
          "name": "",
          "type": "bool"
        }
      ],
      "stateMutability": "view",
      "type": "function"
    },
    {
      "inputs": [],
      "name": "symbol",
      "outputs": [
        {
          "internalType": "string",
          "name": "",
          "type": "string"
        }
      ],
      "stateMutability": "view",
      "type": "function"
    },
    {
      "inputs": [
        {
          "internalType": "uint256",
          "name": "tokenId",
          "type": "uint256"
        }
      ],
      "name": "tokenURI",
      "outputs": [
        {
          "internalType": "string",
          "name": "",
          "type": "string"
        }
      ],
      "stateMutability": "view",
      "type": "function"
    },
    {
      "inputs": [
        {
          "internalType": "address",
          "name": "newOwner",
          "type": "address"
        }
      ],
      "name": "transferOwnership",
      "outputs": [],
      "stateMutability": "nonpayable",
      "type": "function"
    },
    {
      "inputs": [
        {
          "internalType": "address",
          "name": "_owner",
          "type": "address"
        }
      ],
      "name": "balanceOf",
      "outputs": [
        {
          "internalType": "uint256",
          "name": "",
          "type": "uint256"
        }
      ],
      "stateMutability": "view",
      "type": "function"
    },
    {
      "inputs": [
        {
          "internalType": "uint256",
          "name": "_tokenId",
          "type": "uint256"
        }
      ],
      "name": "ownerOf",
      "outputs": [
        {
          "internalType": "address",
          "name": "",
          "type": "address"
        }
      ],
      "stateMutability": "view",
      "type": "function"
    },
    {
      "inputs": [
        {
          "internalType": "address",
          "name": "_from",
          "type": "address"
        },
        {
          "internalType": "address",
          "name": "_to",
          "type": "address"
        },
        {
          "internalType": "uint256",
          "name": "_tokenId",
          "type": "uint256"
        }
      ],
      "name": "transferFrom",
      "outputs": [],
      "stateMutability": "nonpayable",
      "type": "function"
    }
  ],
  "bytecode": "0x60806040523480156200001157600080fd5b506040518060400160405280600881526020017f4465466c796572730000000000000000000000000000000000000000000000008152506040518060400160405280600481526020017f44464c59000000000000000000000000000000000000000000000000000000008152506200009e62000092620000d860201b60201c565b620000e060201b60201c565b8160049080519060200190620000b6929190620001a4565b508060059080519060200190620000cf929190620001a4565b505050620002b8565b600033905090565b60008060009054906101000a900473ffffffffffffffffffffffffffffffffffffffff169050816000806101000a81548173ffffffffffffffffffffffffffffffffffffffff021916908373ffffffffffffffffffffffffffffffffffffffff1602179055508173ffffffffffffffffffffffffffffffffffffffff168173ffffffffffffffffffffffffffffffffffffffff167f8be0079c531659141344cd1fd0a4f28419497f9722a3daafe3b4186f6b6457e060405160405180910390a35050565b828054620001b29062000283565b90600052602060002090601f016020900481019282620001d6576000855562000222565b82601f10620001f157805160ff191683800117855562000222565b8280016001018555821562000222579182015b828111156200022157825182559160200191906001019062000204565b5b50905062000231919062000235565b5090565b5b808211156200025057600081600090555060010162000236565b5090565b7f4e487b7100000000000000000000000000000000000000000000000000000000600052602260045260246000fd5b600060028204905060018216806200029c57607f821691505b602082108103620002b257620002b162000254565b5b50919050565b612ff680620002c86000396000f3fe608060405234801561001057600080fd5b506004361061012c5760003560e01c8063715018a6116100ad578063b88d4fde11610071578063b88d4fde14610358578063c87b56dd14610374578063d328c4f3146103a4578063e985e9c5146103c0578063f2fde38b146103f05761012c565b8063715018a6146102c65780638da5cb5b146102d057806395d89b41146102ee578063a22cb4651461030c578063a6cf8b0d146103285761012c565b806323b872dd116100f457806323b872dd146101fe57806342842e0e1461021a578063443b09e8146102365780636352211e1461026657806370a08231146102965761012c565b806301ffc9a71461013157806306fdde0314610161578063081812fc1461017f578063095ea7b3146101af57806309d945be146101cb575b600080fd5b61014b60048036038101906101469190611da0565b61040c565b6040516101589190611de8565b60405180910390f35b6101696104ee565b6040516101769190611e9c565b60405180910390f35b61019960048036038101906101949190611ef4565b610580565b6040516101a69190611f62565b60405180910390f35b6101c960048036038101906101c49190611fa9565b610605565b005b6101e560048036038101906101e09190611ef4565b61071c565b6040516101f59493929190611ff8565b60405180910390f35b61021860048036038101906102139190612052565b6108f4565b005b610234600480360381019061022f9190612052565b610abd565b005b610250600480360381019061024b9190611ef4565b610add565b60405161025d9190611f62565b60405180910390f35b610280600480360381019061027b9190611ef4565b610b10565b60405161028d9190611f62565b60405180910390f35b6102b060048036038101906102ab91906120a5565b610b4d565b6040516102bd91906120d2565b60405180910390f35b6102ce610b96565b005b6102d8610c1e565b6040516102e59190611f62565b60405180910390f35b6102f6610c47565b6040516103039190611e9c565b60405180910390f35b61032660048036038101906103219190612119565b610cd9565b005b610342600480360381019061033d91906120a5565b610cef565b60405161034f91906120d2565b60405180910390f35b610372600480360381019061036d919061228e565b610d07565b005b61038e60048036038101906103899190611ef4565b610d69565b60405161039b9190611e9c565b60405180910390f35b6103be60048036038101906103b991906123b2565b610e10565b005b6103da60048036038101906103d5919061246d565b610fc3565b6040516103e79190611de8565b60405180910390f35b61040a600480360381019061040591906120a5565b611057565b005b60007f80ac58cd000000000000000000000000000000000000000000000000000000007bffffffffffffffffffffffffffffffffffffffffffffffffffffffff1916827bffffffffffffffffffffffffffffffffffffffffffffffffffffffff191614806104d757507f5b5e139f000000000000000000000000000000000000000000000000000000007bffffffffffffffffffffffffffffffffffffffffffffffffffffffff1916827bffffffffffffffffffffffffffffffffffffffffffffffffffffffff1916145b806104e757506104e68261114e565b5b9050919050565b6060600480546104fd906124dc565b80601f0160208091040260200160405190810160405280929190818152602001828054610529906124dc565b80156105765780601f1061054b57610100808354040283529160200191610576565b820191906000526020600020905b81548152906001019060200180831161055957829003601f168201915b5050505050905090565b600061058b826111b8565b6105ca576040517f08c379a00000000000000000000000000000000000000000000000000000000081526004016105c19061257f565b60405180910390fd5b6008600083815260200190815260200160002060009054906101000a900473ffffffffffffffffffffffffffffffffffffffff169050919050565b600061061082611224565b90508073ffffffffffffffffffffffffffffffffffffffff168373ffffffffffffffffffffffffffffffffffffffff1603610680576040517f08c379a000000000000000000000000000000000000000000000000000000000815260040161067790612611565b60405180910390fd5b8073ffffffffffffffffffffffffffffffffffffffff1661069f6112d5565b73ffffffffffffffffffffffffffffffffffffffff1614806106ce57506106cd816106c86112d5565b610fc3565b5b61070d576040517f08c379a0000000000000000000000000000000000000000000000000000000008152600401610704906126a3565b60405180910390fd5b61071783836112dd565b505050565b6001818154811061072c57600080fd5b906000526020600020906004020160009150905080600001805461074f906124dc565b80601f016020809104026020016040519081016040528092919081815260200182805461077b906124dc565b80156107c85780601f1061079d576101008083540402835291602001916107c8565b820191906000526020600020905b8154815290600101906020018083116107ab57829003601f168201915b5050505050908060010180546107dd906124dc565b80601f0160208091040260200160405190810160405280929190818152602001828054610809906124dc565b80156108565780601f1061082b57610100808354040283529160200191610856565b820191906000526020600020905b81548152906001019060200180831161083957829003601f168201915b50505050509080600201805461086b906124dc565b80601f0160208091040260200160405190810160405280929190818152602001828054610897906124dc565b80156108e45780601f106108b9576101008083540402835291602001916108e4565b820191906000526020600020905b8154815290600101906020018083116108c757829003601f168201915b5050505050908060030154905084565b803373ffffffffffffffffffffffffffffffffffffffff166002600083815260200190815260200160002060009054906101000a900473ffffffffffffffffffffffffffffffffffffffff1673ffffffffffffffffffffffffffffffffffffffff161461096057600080fd5b600360008573ffffffffffffffffffffffffffffffffffffffff1673ffffffffffffffffffffffffffffffffffffffff16815260200190815260200160002060008154809291906109b0906126f2565b9190505550600360008473ffffffffffffffffffffffffffffffffffffffff1673ffffffffffffffffffffffffffffffffffffffff1681526020019081526020016000206000815480929190610a059061271b565b9190505550826002600084815260200190815260200160002060006101000a81548173ffffffffffffffffffffffffffffffffffffffff021916908373ffffffffffffffffffffffffffffffffffffffff160217905550818373ffffffffffffffffffffffffffffffffffffffff168573ffffffffffffffffffffffffffffffffffffffff167fddf252ad1be2c89b69c2b068fc378daa952ba7f163c4a11628f55a4df523b3ef60405160405180910390a450505050565b610ad883838360405180602001604052806000815250610d07565b505050565b60026020528060005260406000206000915054906101000a900473ffffffffffffffffffffffffffffffffffffffff1681565b60006002600083815260200190815260200160002060009054906101000a900473ffffffffffffffffffffffffffffffffffffffff169050919050565b6000600360008373ffffffffffffffffffffffffffffffffffffffff1673ffffffffffffffffffffffffffffffffffffffff168152602001908152602001600020549050919050565b610b9e6112d5565b73ffffffffffffffffffffffffffffffffffffffff16610bbc610c1e565b73ffffffffffffffffffffffffffffffffffffffff1614610c12576040517f08c379a0000000000000000000000000000000000000000000000000000000008152600401610c09906127af565b60405180910390fd5b610c1c6000611396565b565b60008060009054906101000a900473ffffffffffffffffffffffffffffffffffffffff16905090565b606060058054610c56906124dc565b80601f0160208091040260200160405190810160405280929190818152602001828054610c82906124dc565b8015610ccf5780601f10610ca457610100808354040283529160200191610ccf565b820191906000526020600020905b815481529060010190602001808311610cb257829003601f168201915b5050505050905090565b610ceb610ce46112d5565b838361145a565b5050565b60036020528060005260406000206000915090505481565b610d18610d126112d5565b836115c6565b610d57576040517f08c379a0000000000000000000000000000000000000000000000000000000008152600401610d4e90612841565b60405180910390fd5b610d63848484846116a4565b50505050565b6060610d74826111b8565b610db3576040517f08c379a0000000000000000000000000000000000000000000000000000000008152600401610daa906128d3565b60405180910390fd5b6000610dbd611700565b90506000815111610ddd5760405180602001604052806000815250610e08565b80610de784611717565b604051602001610df892919061292f565b6040516020818303038152906040525b915050919050565b600160405180608001604052808681526020018581526020018481526020018381525090806001815401808255809150506001900390600052602060002090600402016000909190919091506000820151816000019080519060200190610e78929190611c91565b506020820151816001019080519060200190610e95929190611c91565b506040820151816002019080519060200190610eb2929190611c91565b50606082015181600301555050600060018080549050610ed29190612953565b9050336002600083815260200190815260200160002060006101000a81548173ffffffffffffffffffffffffffffffffffffffff021916908373ffffffffffffffffffffffffffffffffffffffff1602179055506001600360003373ffffffffffffffffffffffffffffffffffffffff1673ffffffffffffffffffffffffffffffffffffffff1681526020019081526020016000206000828254610f769190612987565b925050819055507f103d8a0318863f4409aa9cd3ba0a3cd74b5d2becba34d0fbd6e3320f6c18d4788186868686604051610fb49594939291906129dd565b60405180910390a15050505050565b6000600960008473ffffffffffffffffffffffffffffffffffffffff1673ffffffffffffffffffffffffffffffffffffffff16815260200190815260200160002060008373ffffffffffffffffffffffffffffffffffffffff1673ffffffffffffffffffffffffffffffffffffffff16815260200190815260200160002060009054906101000a900460ff16905092915050565b61105f6112d5565b73ffffffffffffffffffffffffffffffffffffffff1661107d610c1e565b73ffffffffffffffffffffffffffffffffffffffff16146110d3576040517f08c379a00000000000000000000000000000000000000000000000000000000081526004016110ca906127af565b60405180910390fd5b600073ffffffffffffffffffffffffffffffffffffffff168173ffffffffffffffffffffffffffffffffffffffff1603611142576040517f08c379a000000000000000000000000000000000000000000000000000000000815260040161113990612ab7565b60405180910390fd5b61114b81611396565b50565b60007f01ffc9a7000000000000000000000000000000000000000000000000000000007bffffffffffffffffffffffffffffffffffffffffffffffffffffffff1916827bffffffffffffffffffffffffffffffffffffffffffffffffffffffff1916149050919050565b60008073ffffffffffffffffffffffffffffffffffffffff166006600084815260200190815260200160002060009054906101000a900473ffffffffffffffffffffffffffffffffffffffff1673ffffffffffffffffffffffffffffffffffffffff1614159050919050565b6000806006600084815260200190815260200160002060009054906101000a900473ffffffffffffffffffffffffffffffffffffffff169050600073ffffffffffffffffffffffffffffffffffffffff168173ffffffffffffffffffffffffffffffffffffffff16036112cc576040517f08c379a00000000000000000000000000000000000000000000000000000000081526004016112c390612b49565b60405180910390fd5b80915050919050565b600033905090565b816008600083815260200190815260200160002060006101000a81548173ffffffffffffffffffffffffffffffffffffffff021916908373ffffffffffffffffffffffffffffffffffffffff160217905550808273ffffffffffffffffffffffffffffffffffffffff1661135083611224565b73ffffffffffffffffffffffffffffffffffffffff167f8c5be1e5ebec7d5bd14f71427d1e84f3dd0314c0f7b2291e5b200ac8c7c3b92560405160405180910390a45050565b60008060009054906101000a900473ffffffffffffffffffffffffffffffffffffffff169050816000806101000a81548173ffffffffffffffffffffffffffffffffffffffff021916908373ffffffffffffffffffffffffffffffffffffffff1602179055508173ffffffffffffffffffffffffffffffffffffffff168173ffffffffffffffffffffffffffffffffffffffff167f8be0079c531659141344cd1fd0a4f28419497f9722a3daafe3b4186f6b6457e060405160405180910390a35050565b8173ffffffffffffffffffffffffffffffffffffffff168373ffffffffffffffffffffffffffffffffffffffff16036114c8576040517f08c379a00000000000000000000000000000000000000000000000000000000081526004016114bf90612bb5565b60405180910390fd5b80600960008573ffffffffffffffffffffffffffffffffffffffff1673ffffffffffffffffffffffffffffffffffffffff16815260200190815260200160002060008473ffffffffffffffffffffffffffffffffffffffff1673ffffffffffffffffffffffffffffffffffffffff16815260200190815260200160002060006101000a81548160ff0219169083151502179055508173ffffffffffffffffffffffffffffffffffffffff168373ffffffffffffffffffffffffffffffffffffffff167f17307eab39ab6107e8899845ad3d59bd9653f200f220920489ca2b5937696c31836040516115b99190611de8565b60405180910390a3505050565b60006115d1826111b8565b611610576040517f08c379a000000000000000000000000000000000000000000000000000000000815260040161160790612c47565b60405180910390fd5b600061161b83611224565b90508073ffffffffffffffffffffffffffffffffffffffff168473ffffffffffffffffffffffffffffffffffffffff16148061168a57508373ffffffffffffffffffffffffffffffffffffffff1661167284610580565b73ffffffffffffffffffffffffffffffffffffffff16145b8061169b575061169a8185610fc3565b5b91505092915050565b6116af848484611877565b6116bb84848484611add565b6116fa576040517f08c379a00000000000000000000000000000000000000000000000000000000081526004016116f190612cd9565b60405180910390fd5b50505050565b606060405180602001604052806000815250905090565b60606000820361175e576040518060400160405280600181526020017f30000000000000000000000000000000000000000000000000000000000000008152509050611872565b600082905060005b600082146117905780806117799061271b565b915050600a826117899190612d28565b9150611766565b60008167ffffffffffffffff8111156117ac576117ab612163565b5b6040519080825280601f01601f1916602001820160405280156117de5781602001600182028036833780820191505090505b5090505b6000851461186b576001826117f79190612953565b9150600a856118069190612d59565b60306118129190612987565b60f81b81838151811061182857611827612d8a565b5b60200101907effffffffffffffffffffffffffffffffffffffffffffffffffffffffffffff1916908160001a905350600a856118649190612d28565b94506117e2565b8093505050505b919050565b8273ffffffffffffffffffffffffffffffffffffffff1661189782611224565b73ffffffffffffffffffffffffffffffffffffffff16146118ed576040517f08c379a00000000000000000000000000000000000000000000000000000000081526004016118e490612e2b565b60405180910390fd5b600073ffffffffffffffffffffffffffffffffffffffff168273ffffffffffffffffffffffffffffffffffffffff160361195c576040517f08c379a000000000000000000000000000000000000000000000000000000000815260040161195390612ebd565b60405180910390fd5b611967838383611c64565b6119726000826112dd565b6001600760008573ffffffffffffffffffffffffffffffffffffffff1673ffffffffffffffffffffffffffffffffffffffff16815260200190815260200160002060008282546119c29190612953565b925050819055506001600760008473ffffffffffffffffffffffffffffffffffffffff1673ffffffffffffffffffffffffffffffffffffffff1681526020019081526020016000206000828254611a199190612987565b92505081905550816006600083815260200190815260200160002060006101000a81548173ffffffffffffffffffffffffffffffffffffffff021916908373ffffffffffffffffffffffffffffffffffffffff160217905550808273ffffffffffffffffffffffffffffffffffffffff168473ffffffffffffffffffffffffffffffffffffffff167fddf252ad1be2c89b69c2b068fc378daa952ba7f163c4a11628f55a4df523b3ef60405160405180910390a4611ad8838383611c69565b505050565b6000611afe8473ffffffffffffffffffffffffffffffffffffffff16611c6e565b15611c57578373ffffffffffffffffffffffffffffffffffffffff1663150b7a02611b276112d5565b8786866040518563ffffffff1660e01b8152600401611b499493929190612f32565b6020604051808303816000875af1925050508015611b8557506040513d601f19601f82011682018060405250810190611b829190612f93565b60015b611c07573d8060008114611bb5576040519150601f19603f3d011682016040523d82523d6000602084013e611bba565b606091505b506000815103611bff576040517f08c379a0000000000000000000000000000000000000000000000000000000008152600401611bf690612cd9565b60405180910390fd5b805181602001fd5b63150b7a0260e01b7bffffffffffffffffffffffffffffffffffffffffffffffffffffffff1916817bffffffffffffffffffffffffffffffffffffffffffffffffffffffff191614915050611c5c565b600190505b949350505050565b505050565b505050565b6000808273ffffffffffffffffffffffffffffffffffffffff163b119050919050565b828054611c9d906124dc565b90600052602060002090601f016020900481019282611cbf5760008555611d06565b82601f10611cd857805160ff1916838001178555611d06565b82800160010185558215611d06579182015b82811115611d05578251825591602001919060010190611cea565b5b509050611d139190611d17565b5090565b5b80821115611d30576000816000905550600101611d18565b5090565b6000604051905090565b600080fd5b600080fd5b60007fffffffff0000000000000000000000000000000000000000000000000000000082169050919050565b611d7d81611d48565b8114611d8857600080fd5b50565b600081359050611d9a81611d74565b92915050565b600060208284031215611db657611db5611d3e565b5b6000611dc484828501611d8b565b91505092915050565b60008115159050919050565b611de281611dcd565b82525050565b6000602082019050611dfd6000830184611dd9565b92915050565b600081519050919050565b600082825260208201905092915050565b60005b83811015611e3d578082015181840152602081019050611e22565b83811115611e4c576000848401525b50505050565b6000601f19601f8301169050919050565b6000611e6e82611e03565b611e788185611e0e565b9350611e88818560208601611e1f565b611e9181611e52565b840191505092915050565b60006020820190508181036000830152611eb68184611e63565b905092915050565b6000819050919050565b611ed181611ebe565b8114611edc57600080fd5b50565b600081359050611eee81611ec8565b92915050565b600060208284031215611f0a57611f09611d3e565b5b6000611f1884828501611edf565b91505092915050565b600073ffffffffffffffffffffffffffffffffffffffff82169050919050565b6000611f4c82611f21565b9050919050565b611f5c81611f41565b82525050565b6000602082019050611f776000830184611f53565b92915050565b611f8681611f41565b8114611f9157600080fd5b50565b600081359050611fa381611f7d565b92915050565b60008060408385031215611fc057611fbf611d3e565b5b6000611fce85828601611f94565b9250506020611fdf85828601611edf565b9150509250929050565b611ff281611ebe565b82525050565b600060808201905081810360008301526120128187611e63565b905081810360208301526120268186611e63565b9050818103604083015261203a8185611e63565b90506120496060830184611fe9565b95945050505050565b60008060006060848603121561206b5761206a611d3e565b5b600061207986828701611f94565b935050602061208a86828701611f94565b925050604061209b86828701611edf565b9150509250925092565b6000602082840312156120bb576120ba611d3e565b5b60006120c984828501611f94565b91505092915050565b60006020820190506120e76000830184611fe9565b92915050565b6120f681611dcd565b811461210157600080fd5b50565b600081359050612113816120ed565b92915050565b600080604083850312156121305761212f611d3e565b5b600061213e85828601611f94565b925050602061214f85828601612104565b9150509250929050565b600080fd5b600080fd5b7f4e487b7100000000000000000000000000000000000000000000000000000000600052604160045260246000fd5b61219b82611e52565b810181811067ffffffffffffffff821117156121ba576121b9612163565b5b80604052505050565b60006121cd611d34565b90506121d98282612192565b919050565b600067ffffffffffffffff8211156121f9576121f8612163565b5b61220282611e52565b9050602081019050919050565b82818337600083830152505050565b600061223161222c846121de565b6121c3565b90508281526020810184848401111561224d5761224c61215e565b5b61225884828561220f565b509392505050565b600082601f83011261227557612274612159565b5b813561228584826020860161221e565b91505092915050565b600080600080608085870312156122a8576122a7611d3e565b5b60006122b687828801611f94565b94505060206122c787828801611f94565b93505060406122d887828801611edf565b925050606085013567ffffffffffffffff8111156122f9576122f8611d43565b5b61230587828801612260565b91505092959194509250565b600067ffffffffffffffff82111561232c5761232b612163565b5b61233582611e52565b9050602081019050919050565b600061235561235084612311565b6121c3565b9050828152602081018484840111156123715761237061215e565b5b61237c84828561220f565b509392505050565b600082601f83011261239957612398612159565b5b81356123a9848260208601612342565b91505092915050565b600080600080608085870312156123cc576123cb611d3e565b5b600085013567ffffffffffffffff8111156123ea576123e9611d43565b5b6123f687828801612384565b945050602085013567ffffffffffffffff81111561241757612416611d43565b5b61242387828801612384565b935050604085013567ffffffffffffffff81111561244457612443611d43565b5b61245087828801612384565b925050606061246187828801611edf565b91505092959194509250565b6000806040838503121561248457612483611d3e565b5b600061249285828601611f94565b92505060206124a385828601611f94565b9150509250929050565b7f4e487b7100000000000000000000000000000000000000000000000000000000600052602260045260246000fd5b600060028204905060018216806124f457607f821691505b602082108103612507576125066124ad565b5b50919050565b7f4552433732313a20617070726f76656420717565727920666f72206e6f6e657860008201527f697374656e7420746f6b656e0000000000000000000000000000000000000000602082015250565b6000612569602c83611e0e565b91506125748261250d565b604082019050919050565b600060208201905081810360008301526125988161255c565b9050919050565b7f4552433732313a20617070726f76616c20746f2063757272656e74206f776e6560008201527f7200000000000000000000000000000000000000000000000000000000000000602082015250565b60006125fb602183611e0e565b91506126068261259f565b604082019050919050565b6000602082019050818103600083015261262a816125ee565b9050919050565b7f4552433732313a20617070726f76652063616c6c6572206973206e6f74206f7760008201527f6e6572206e6f7220617070726f76656420666f7220616c6c0000000000000000602082015250565b600061268d603883611e0e565b915061269882612631565b604082019050919050565b600060208201905081810360008301526126bc81612680565b9050919050565b7f4e487b7100000000000000000000000000000000000000000000000000000000600052601160045260246000fd5b60006126fd82611ebe565b9150600082036127105761270f6126c3565b5b600182039050919050565b600061272682611ebe565b91507fffffffffffffffffffffffffffffffffffffffffffffffffffffffffffffffff8203612758576127576126c3565b5b600182019050919050565b7f4f776e61626c653a2063616c6c6572206973206e6f7420746865206f776e6572600082015250565b6000612799602083611e0e565b91506127a482612763565b602082019050919050565b600060208201905081810360008301526127c88161278c565b9050919050565b7f4552433732313a207472616e736665722063616c6c6572206973206e6f74206f60008201527f776e6572206e6f7220617070726f766564000000000000000000000000000000602082015250565b600061282b603183611e0e565b9150612836826127cf565b604082019050919050565b6000602082019050818103600083015261285a8161281e565b9050919050565b7f4552433732314d657461646174613a2055524920717565727920666f72206e6f60008201527f6e6578697374656e7420746f6b656e0000000000000000000000000000000000602082015250565b60006128bd602f83611e0e565b91506128c882612861565b604082019050919050565b600060208201905081810360008301526128ec816128b0565b9050919050565b600081905092915050565b600061290982611e03565b61291381856128f3565b9350612923818560208601611e1f565b80840191505092915050565b600061293b82856128fe565b915061294782846128fe565b91508190509392505050565b600061295e82611ebe565b915061296983611ebe565b92508282101561297c5761297b6126c3565b5b828203905092915050565b600061299282611ebe565b915061299d83611ebe565b9250827fffffffffffffffffffffffffffffffffffffffffffffffffffffffffffffffff038211156129d2576129d16126c3565b5b828201905092915050565b600060a0820190506129f26000830188611fe9565b8181036020830152612a048187611e63565b90508181036040830152612a188186611e63565b90508181036060830152612a2c8185611e63565b9050612a3b6080830184611fe9565b9695505050505050565b7f4f776e61626c653a206e6577206f776e657220697320746865207a65726f206160008201527f6464726573730000000000000000000000000000000000000000000000000000602082015250565b6000612aa1602683611e0e565b9150612aac82612a45565b604082019050919050565b60006020820190508181036000830152612ad081612a94565b9050919050565b7f4552433732313a206f776e657220717565727920666f72206e6f6e657869737460008201527f656e7420746f6b656e0000000000000000000000000000000000000000000000602082015250565b6000612b33602983611e0e565b9150612b3e82612ad7565b604082019050919050565b60006020820190508181036000830152612b6281612b26565b9050919050565b7f4552433732313a20617070726f766520746f2063616c6c657200000000000000600082015250565b6000612b9f601983611e0e565b9150612baa82612b69565b602082019050919050565b60006020820190508181036000830152612bce81612b92565b9050919050565b7f4552433732313a206f70657261746f7220717565727920666f72206e6f6e657860008201527f697374656e7420746f6b656e0000000000000000000000000000000000000000602082015250565b6000612c31602c83611e0e565b9150612c3c82612bd5565b604082019050919050565b60006020820190508181036000830152612c6081612c24565b9050919050565b7f4552433732313a207472616e7366657220746f206e6f6e20455243373231526560008201527f63656976657220696d706c656d656e7465720000000000000000000000000000602082015250565b6000612cc3603283611e0e565b9150612cce82612c67565b604082019050919050565b60006020820190508181036000830152612cf281612cb6565b9050919050565b7f4e487b7100000000000000000000000000000000000000000000000000000000600052601260045260246000fd5b6000612d3382611ebe565b9150612d3e83611ebe565b925082612d4e57612d4d612cf9565b5b828204905092915050565b6000612d6482611ebe565b9150612d6f83611ebe565b925082612d7f57612d7e612cf9565b5b828206905092915050565b7f4e487b7100000000000000000000000000000000000000000000000000000000600052603260045260246000fd5b7f4552433732313a207472616e736665722066726f6d20696e636f72726563742060008201527f6f776e6572000000000000000000000000000000000000000000000000000000602082015250565b6000612e15602583611e0e565b9150612e2082612db9565b604082019050919050565b60006020820190508181036000830152612e4481612e08565b9050919050565b7f4552433732313a207472616e7366657220746f20746865207a65726f2061646460008201527f7265737300000000000000000000000000000000000000000000000000000000602082015250565b6000612ea7602483611e0e565b9150612eb282612e4b565b604082019050919050565b60006020820190508181036000830152612ed681612e9a565b9050919050565b600081519050919050565b600082825260208201905092915050565b6000612f0482612edd565b612f0e8185612ee8565b9350612f1e818560208601611e1f565b612f2781611e52565b840191505092915050565b6000608082019050612f476000830187611f53565b612f546020830186611f53565b612f616040830185611fe9565b8181036060830152612f738184612ef9565b905095945050505050565b600081519050612f8d81611d74565b92915050565b600060208284031215612fa957612fa8611d3e565b5b6000612fb784828501612f7e565b9150509291505056fea2646970667358221220111272855b0a91c20630084f21859af74fee37704477ec716ccefad04b73000d64736f6c634300080d0033",
  "immutableReferences": {},
  "source": "pragma solidity ^0.8;\nimport \"@openzeppelin/contracts/token/ERC721/ERC721.sol\";\nimport \"./flyerfactory.sol\";\n\ncontract FlyerOwnership is FlyerFactory, ERC721 {\n    modifier onlyOwnerOf(uint _id) {\n        require(flyerToOwner[_id] == msg.sender );\n        _;\n    }\n\n\n    mapping (uint => address) flyerApproval;\n    constructor() ERC721(\"DeFlyers\",\"DFLY\") {}\n    \n    function balanceOf(address _owner) public view virtual override returns (uint256){\n        return ownerFlyerCount[_owner];\n    }\n    function ownerOf(uint256 _tokenId) public view virtual override returns (address){\n        return flyerToOwner[_tokenId];\n    }\n    function transferFrom(address _from, address _to, uint256 _tokenId) public override onlyOwnerOf(_tokenId){\n        ownerFlyerCount[_from]--;\n        ownerFlyerCount[_to]++;\n        flyerToOwner[_tokenId] = _to;\n        emit Transfer(_from,_to,_tokenId);\n    }\n}\n",
  "sourcePath": "/home/roman/Projets/WEB3/DeFlyers/contracts/flyerownership.sol",
  "compiler": {
    "name": "solc",
    "version": "0.8.13+commit.abaa5c0e.Emscripten.clang"
  },
  "schemaVersion": "3.4.6",
  "updatedAt": "2022-04-07T18:16:00.263Z",
  "devdoc": {
    "kind": "dev",
    "methods": {
      "approve(address,uint256)": {
        "details": "See {IERC721-approve}."
      },
      "getApproved(uint256)": {
        "details": "See {IERC721-getApproved}."
      },
      "isApprovedForAll(address,address)": {
        "details": "See {IERC721-isApprovedForAll}."
      },
      "name()": {
        "details": "See {IERC721Metadata-name}."
      },
      "owner()": {
        "details": "Returns the address of the current owner."
      },
      "renounceOwnership()": {
        "details": "Leaves the contract without owner. It will not be possible to call `onlyOwner` functions anymore. Can only be called by the current owner. NOTE: Renouncing ownership will leave the contract without an owner, thereby removing any functionality that is only available to the owner."
      },
      "safeTransferFrom(address,address,uint256)": {
        "details": "See {IERC721-safeTransferFrom}."
      },
      "safeTransferFrom(address,address,uint256,bytes)": {
        "details": "See {IERC721-safeTransferFrom}."
      },
      "setApprovalForAll(address,bool)": {
        "details": "See {IERC721-setApprovalForAll}."
      },
      "supportsInterface(bytes4)": {
        "details": "See {IERC165-supportsInterface}."
      },
      "symbol()": {
        "details": "See {IERC721Metadata-symbol}."
      },
      "tokenURI(uint256)": {
        "details": "See {IERC721Metadata-tokenURI}."
      },
      "transferOwnership(address)": {
        "details": "Transfers ownership of the contract to a new account (`newOwner`). Can only be called by the current owner."
      }
    },
    "version": 1
  },
  "userdoc": {
    "kind": "user",
    "methods": {},
    "version": 1
  }
}