{
  "contractName": "DeFlyersMarket",
  "abi": [
    {
      "anonymous": false,
      "inputs": [
        {
          "indexed": true,
          "internalType": "address",
          "name": "previousOwner",
          "type": "address"
        },
        {
          "indexed": true,
          "internalType": "address",
          "name": "newOwner",
          "type": "address"
        }
      ],
      "name": "OwnershipTransferred",
      "type": "event"
    },
    {
      "inputs": [],
      "name": "owner",
      "outputs": [
        {
          "internalType": "address",
          "name": "",
          "type": "address"
        }
      ],
      "stateMutability": "view",
      "type": "function",
      "constant": true
    },
    {
      "inputs": [],
      "name": "renounceOwnership",
      "outputs": [],
      "stateMutability": "nonpayable",
      "type": "function"
    },
    {
      "inputs": [
        {
          "internalType": "address",
          "name": "newOwner",
          "type": "address"
        }
      ],
      "name": "transferOwnership",
      "outputs": [],
      "stateMutability": "nonpayable",
      "type": "function"
    },
    {
      "inputs": [
        {
          "internalType": "address",
          "name": "_aureusAddress",
          "type": "address"
        }
      ],
      "name": "setCurrencyAddress",
      "outputs": [],
      "stateMutability": "nonpayable",
      "type": "function"
    },
    {
      "inputs": [
        {
          "internalType": "address",
          "name": "_deflyTokenAddress",
          "type": "address"
        }
      ],
      "name": "setTokenAddress",
      "outputs": [],
      "stateMutability": "nonpayable",
      "type": "function"
    },
    {
      "inputs": [
        {
          "internalType": "uint256",
          "name": "_tokenId",
          "type": "uint256"
        },
        {
          "internalType": "uint256",
          "name": "_amount",
          "type": "uint256"
        }
      ],
      "name": "exchange",
      "outputs": [],
      "stateMutability": "nonpayable",
      "type": "function"
    }
  ],
  "bytecode": "0x608060405234801561001057600080fd5b5061001a3361001f565b61006f565b600080546001600160a01b038381166001600160a01b0319831681178455604051919092169283917f8be0079c531659141344cd1fd0a4f28419497f9722a3daafe3b4186f6b6457e09190a35050565b6106a68061007e6000396000f3fe608060405234801561001057600080fd5b50600436106100625760003560e01c806326a4e8d214610067578063715018a61461007c578063796b89ec146100845780638da5cb5b14610097578063d4b7eac3146100b6578063f2fde38b146100c9575b600080fd5b61007a6100753660046105bf565b6100dc565b005b61007a610131565b61007a6100923660046105bf565b610167565b600054604080516001600160a01b039092168252519081900360200190f35b61007a6100c43660046105e3565b6101b3565b61007a6100d73660046105bf565b6104bf565b6000546001600160a01b0316331461010f5760405162461bcd60e51b815260040161010690610605565b60405180910390fd5b600280546001600160a01b0319166001600160a01b0392909216919091179055565b6000546001600160a01b0316331461015b5760405162461bcd60e51b815260040161010690610605565b610165600061055a565b565b6000546001600160a01b031633146101915760405162461bcd60e51b815260040161010690610605565b600180546001600160a01b0319166001600160a01b0392909216919091179055565b600254604051630e75722360e41b81526004810184905282916001600160a01b03169063e757223090602401602060405180830381865afa1580156101fc573d6000803e3d6000fd5b505050506040513d601f19601f82011682018060405250810190610220919061063a565b14801561029757506001546040516370a0823160e01b815233600482015282916001600160a01b0316906370a0823190602401602060405180830381865afa158015610270573d6000803e3d6000fd5b505050506040513d601f19601f82011682018060405250810190610294919061063a565b10155b6102a057600080fd5b6001546002546040516331a9108f60e11b8152600481018590526001600160a01b039283169263fff5ae4e923392911690636352211e90602401602060405180830381865afa1580156102f7573d6000803e3d6000fd5b505050506040513d601f19601f8201168201806040525081019061031b9190610653565b6040516001600160e01b031960e085901b1681526001600160a01b0392831660048201529116602482015260448101849052606401600060405180830381600087803b15801561036a57600080fd5b505af115801561037e573d6000803e3d6000fd5b50506002546040516331a9108f60e11b8152600481018690526001600160a01b03909116925063fff5ae4e91508290636352211e90602401602060405180830381865afa1580156103d3573d6000803e3d6000fd5b505050506040513d601f19601f820116820180604052508101906103f79190610653565b6040516001600160e01b031960e084901b1681526001600160a01b03909116600482015233602482015260448101859052606401600060405180830381600087803b15801561044557600080fd5b505af1158015610459573d6000803e3d6000fd5b505060025460405163a4223d5360e01b8152600481018690526001600160a01b03909116925063a4223d539150602401600060405180830381600087803b1580156104a357600080fd5b505af11580156104b7573d6000803e3d6000fd5b505050505050565b6000546001600160a01b031633146104e95760405162461bcd60e51b815260040161010690610605565b6001600160a01b03811661054e5760405162461bcd60e51b815260206004820152602660248201527f4f776e61626c653a206e6577206f776e657220697320746865207a65726f206160448201526564647265737360d01b6064820152608401610106565b6105578161055a565b50565b600080546001600160a01b038381166001600160a01b0319831681178455604051919092169283917f8be0079c531659141344cd1fd0a4f28419497f9722a3daafe3b4186f6b6457e09190a35050565b6001600160a01b038116811461055757600080fd5b6000602082840312156105d157600080fd5b81356105dc816105aa565b9392505050565b600080604083850312156105f657600080fd5b50508035926020909101359150565b6020808252818101527f4f776e61626c653a2063616c6c6572206973206e6f7420746865206f776e6572604082015260600190565b60006020828403121561064c57600080fd5b5051919050565b60006020828403121561066557600080fd5b81516105dc816105aa56fea26469706673582212201026799f1a27a8a3a38572a8d96d2e97666bdcff45749dd841c56cd3c7536d9164736f6c634300080d0033",
  "immutableReferences": {},
  "source": "// SPDX-License-Identifier: MIT\npragma solidity ^0.8;\nimport \"@openzeppelin/contracts/token/ERC20/IERC20.sol\";\nimport \"@openzeppelin/contracts/token/ERC721/IERC721.sol\";\nimport \"@openzeppelin/contracts/access/Ownable.sol\";\nimport \"./IFlyerOwnership.sol\";\n\ninterface IAureusToken {\n    function marketSend(address _from,address _to,uint256 _amount) external;\n    function balanceOf(address account) external view returns (uint256);\n}\n\ncontract DeFlyersMarket is Ownable {\n    IAureusToken aureusAddress;\n    IFlyerOwnership deflyTokenAddress;\n\n    function setCurrencyAddress(address _aureusAddress) public onlyOwner() {\n        aureusAddress = IAureusToken(_aureusAddress) ;\n    }\n\n    function setTokenAddress(address _deflyTokenAddress) public onlyOwner(){\n       deflyTokenAddress = IFlyerOwnership(_deflyTokenAddress);\n    }\n\n    // First transaction amount must be loaded and token on sale then execute this exchange\n    function exchange(uint _tokenId,uint _amount) external{\n        require(deflyTokenAddress.getPrice(_tokenId) == _amount && aureusAddress.balanceOf(msg.sender) >= _amount);\n        // Send currency\n        aureusAddress.marketSend(msg.sender,deflyTokenAddress.ownerOf(_tokenId),_amount);\n        // Send token\n        deflyTokenAddress.marketSend(deflyTokenAddress.ownerOf(_tokenId),msg.sender,_tokenId);\n        // Sale status on false to avoid any other instant trade\n        deflyTokenAddress.closeSale(_tokenId);\n    }\n\n\n\n}\n",
  "sourcePath": "/home/roman/Projets/WEB3/DeFlyers/contracts/deflyersmarket.sol",
  "compiler": {
    "name": "solc",
    "version": "0.8.13+commit.abaa5c0e.Emscripten.clang"
  },
  "schemaVersion": "3.4.6",
  "updatedAt": "2022-04-15T20:24:00.268Z",
  "networkType": "ethereum",
  "devdoc": {
    "kind": "dev",
    "methods": {
      "owner()": {
        "details": "Returns the address of the current owner."
      },
      "renounceOwnership()": {
        "details": "Leaves the contract without owner. It will not be possible to call `onlyOwner` functions anymore. Can only be called by the current owner. NOTE: Renouncing ownership will leave the contract without an owner, thereby removing any functionality that is only available to the owner."
      },
      "transferOwnership(address)": {
        "details": "Transfers ownership of the contract to a new account (`newOwner`). Can only be called by the current owner."
      }
    },
    "version": 1
  },
  "userdoc": {
    "kind": "user",
    "methods": {},
    "version": 1
  }
}