{
  "contractName": "FlyerOwnership",
  "abi": [
    {
      "inputs": [],
      "stateMutability": "nonpayable",
      "type": "constructor"
    },
    {
      "anonymous": false,
      "inputs": [
        {
          "indexed": true,
          "internalType": "address",
          "name": "owner",
          "type": "address"
        },
        {
          "indexed": true,
          "internalType": "address",
          "name": "approved",
          "type": "address"
        },
        {
          "indexed": true,
          "internalType": "uint256",
          "name": "tokenId",
          "type": "uint256"
        }
      ],
      "name": "Approval",
      "type": "event"
    },
    {
      "anonymous": false,
      "inputs": [
        {
          "indexed": true,
          "internalType": "address",
          "name": "owner",
          "type": "address"
        },
        {
          "indexed": true,
          "internalType": "address",
          "name": "operator",
          "type": "address"
        },
        {
          "indexed": false,
          "internalType": "bool",
          "name": "approved",
          "type": "bool"
        }
      ],
      "name": "ApprovalForAll",
      "type": "event"
    },
    {
      "anonymous": false,
      "inputs": [
        {
          "indexed": false,
          "internalType": "uint256",
          "name": "id",
          "type": "uint256"
        },
        {
          "indexed": false,
          "internalType": "string",
          "name": "name",
          "type": "string"
        },
        {
          "indexed": false,
          "internalType": "string",
          "name": "description",
          "type": "string"
        },
        {
          "indexed": false,
          "internalType": "string",
          "name": "image",
          "type": "string"
        },
        {
          "indexed": false,
          "internalType": "uint256",
          "name": "price",
          "type": "uint256"
        }
      ],
      "name": "NewFlyer",
      "type": "event"
    },
    {
      "anonymous": false,
      "inputs": [
        {
          "indexed": true,
          "internalType": "address",
          "name": "previousOwner",
          "type": "address"
        },
        {
          "indexed": true,
          "internalType": "address",
          "name": "newOwner",
          "type": "address"
        }
      ],
      "name": "OwnershipTransferred",
      "type": "event"
    },
    {
      "anonymous": false,
      "inputs": [
        {
          "indexed": true,
          "internalType": "address",
          "name": "from",
          "type": "address"
        },
        {
          "indexed": true,
          "internalType": "address",
          "name": "to",
          "type": "address"
        },
        {
          "indexed": true,
          "internalType": "uint256",
          "name": "tokenId",
          "type": "uint256"
        }
      ],
      "name": "Transfer",
      "type": "event"
    },
    {
      "inputs": [
        {
          "internalType": "string",
          "name": "_name",
          "type": "string"
        },
        {
          "internalType": "string",
          "name": "_description",
          "type": "string"
        },
        {
          "internalType": "string",
          "name": "_image",
          "type": "string"
        },
        {
          "internalType": "uint256",
          "name": "_price",
          "type": "uint256"
        }
      ],
      "name": "createFlyer",
      "outputs": [],
      "stateMutability": "nonpayable",
      "type": "function"
    },
    {
      "inputs": [
        {
          "internalType": "uint256",
          "name": "",
          "type": "uint256"
        }
      ],
      "name": "flyerToOwner",
      "outputs": [
        {
          "internalType": "address",
          "name": "",
          "type": "address"
        }
      ],
      "stateMutability": "view",
      "type": "function"
    },
    {
      "inputs": [
        {
          "internalType": "uint256",
          "name": "",
          "type": "uint256"
        }
      ],
      "name": "flyers",
      "outputs": [
        {
          "internalType": "string",
          "name": "name",
          "type": "string"
        },
        {
          "internalType": "string",
          "name": "description",
          "type": "string"
        },
        {
          "internalType": "string",
          "name": "image",
          "type": "string"
        },
        {
          "internalType": "uint256",
          "name": "price",
          "type": "uint256"
        },
        {
          "internalType": "bool",
          "name": "status",
          "type": "bool"
        }
      ],
      "stateMutability": "view",
      "type": "function"
    },
    {
      "inputs": [
        {
          "internalType": "uint256",
          "name": "tokenId",
          "type": "uint256"
        }
      ],
      "name": "getApproved",
      "outputs": [
        {
          "internalType": "address",
          "name": "",
          "type": "address"
        }
      ],
      "stateMutability": "view",
      "type": "function"
    },
    {
      "inputs": [],
      "name": "getFlyerLength",
      "outputs": [
        {
          "internalType": "uint256",
          "name": "",
          "type": "uint256"
        }
      ],
      "stateMutability": "view",
      "type": "function"
    },
    {
      "inputs": [
        {
          "internalType": "address",
          "name": "owner",
          "type": "address"
        },
        {
          "internalType": "address",
          "name": "operator",
          "type": "address"
        }
      ],
      "name": "isApprovedForAll",
      "outputs": [
        {
          "internalType": "bool",
          "name": "",
          "type": "bool"
        }
      ],
      "stateMutability": "view",
      "type": "function"
    },
    {
      "inputs": [],
      "name": "name",
      "outputs": [
        {
          "internalType": "string",
          "name": "",
          "type": "string"
        }
      ],
      "stateMutability": "view",
      "type": "function"
    },
    {
      "inputs": [],
      "name": "owner",
      "outputs": [
        {
          "internalType": "address",
          "name": "",
          "type": "address"
        }
      ],
      "stateMutability": "view",
      "type": "function"
    },
    {
      "inputs": [
        {
          "internalType": "address",
          "name": "",
          "type": "address"
        }
      ],
      "name": "ownerFlyerCount",
      "outputs": [
        {
          "internalType": "uint256",
          "name": "",
          "type": "uint256"
        }
      ],
      "stateMutability": "view",
      "type": "function"
    },
    {
      "inputs": [],
      "name": "renounceOwnership",
      "outputs": [],
      "stateMutability": "nonpayable",
      "type": "function"
    },
    {
      "inputs": [
        {
          "internalType": "address",
          "name": "from",
          "type": "address"
        },
        {
          "internalType": "address",
          "name": "to",
          "type": "address"
        },
        {
          "internalType": "uint256",
          "name": "tokenId",
          "type": "uint256"
        }
      ],
      "name": "safeTransferFrom",
      "outputs": [],
      "stateMutability": "nonpayable",
      "type": "function"
    },
    {
      "inputs": [
        {
          "internalType": "address",
          "name": "from",
          "type": "address"
        },
        {
          "internalType": "address",
          "name": "to",
          "type": "address"
        },
        {
          "internalType": "uint256",
          "name": "tokenId",
          "type": "uint256"
        },
        {
          "internalType": "bytes",
          "name": "_data",
          "type": "bytes"
        }
      ],
      "name": "safeTransferFrom",
      "outputs": [],
      "stateMutability": "nonpayable",
      "type": "function"
    },
    {
      "inputs": [
        {
          "internalType": "address",
          "name": "operator",
          "type": "address"
        },
        {
          "internalType": "bool",
          "name": "approved",
          "type": "bool"
        }
      ],
      "name": "setApprovalForAll",
      "outputs": [],
      "stateMutability": "nonpayable",
      "type": "function"
    },
    {
      "inputs": [
        {
          "internalType": "bytes4",
          "name": "interfaceId",
          "type": "bytes4"
        }
      ],
      "name": "supportsInterface",
      "outputs": [
        {
          "internalType": "bool",
          "name": "",
          "type": "bool"
        }
      ],
      "stateMutability": "view",
      "type": "function"
    },
    {
      "inputs": [],
      "name": "symbol",
      "outputs": [
        {
          "internalType": "string",
          "name": "",
          "type": "string"
        }
      ],
      "stateMutability": "view",
      "type": "function"
    },
    {
      "inputs": [
        {
          "internalType": "uint256",
          "name": "tokenId",
          "type": "uint256"
        }
      ],
      "name": "tokenURI",
      "outputs": [
        {
          "internalType": "string",
          "name": "",
          "type": "string"
        }
      ],
      "stateMutability": "view",
      "type": "function"
    },
    {
      "inputs": [
        {
          "internalType": "address",
          "name": "newOwner",
          "type": "address"
        }
      ],
      "name": "transferOwnership",
      "outputs": [],
      "stateMutability": "nonpayable",
      "type": "function"
    },
    {
      "inputs": [
        {
          "internalType": "address",
          "name": "_owner",
          "type": "address"
        }
      ],
      "name": "balanceOf",
      "outputs": [
        {
          "internalType": "uint256",
          "name": "",
          "type": "uint256"
        }
      ],
      "stateMutability": "view",
      "type": "function"
    },
    {
      "inputs": [
        {
          "internalType": "uint256",
          "name": "_tokenId",
          "type": "uint256"
        }
      ],
      "name": "ownerOf",
      "outputs": [
        {
          "internalType": "address",
          "name": "",
          "type": "address"
        }
      ],
      "stateMutability": "view",
      "type": "function"
    },
    {
      "inputs": [
        {
          "internalType": "uint256",
          "name": "_tokenId",
          "type": "uint256"
        }
      ],
      "name": "getPrice",
      "outputs": [
        {
          "internalType": "uint256",
          "name": "",
          "type": "uint256"
        }
      ],
      "stateMutability": "view",
      "type": "function"
    },
    {
      "inputs": [
        {
          "internalType": "uint256",
          "name": "_tokenId",
          "type": "uint256"
        }
      ],
      "name": "getStatus",
      "outputs": [
        {
          "internalType": "bool",
          "name": "",
          "type": "bool"
        }
      ],
      "stateMutability": "view",
      "type": "function"
    },
    {
      "inputs": [
        {
          "internalType": "address",
          "name": "to",
          "type": "address"
        },
        {
          "internalType": "uint256",
          "name": "tokenId",
          "type": "uint256"
        }
      ],
      "name": "approve",
      "outputs": [],
      "stateMutability": "nonpayable",
      "type": "function"
    },
    {
      "inputs": [
        {
          "internalType": "uint256",
          "name": "_tokenId",
          "type": "uint256"
        },
        {
          "internalType": "uint256",
          "name": "_price",
          "type": "uint256"
        }
      ],
      "name": "setPrice",
      "outputs": [],
      "stateMutability": "nonpayable",
      "type": "function"
    },
    {
      "inputs": [
        {
          "internalType": "address",
          "name": "_from",
          "type": "address"
        },
        {
          "internalType": "address",
          "name": "_to",
          "type": "address"
        },
        {
          "internalType": "uint256",
          "name": "_tokenId",
          "type": "uint256"
        }
      ],
      "name": "marketSend",
      "outputs": [],
      "stateMutability": "nonpayable",
      "type": "function"
    },
    {
      "inputs": [
        {
          "internalType": "address",
          "name": "_marketAddress",
          "type": "address"
        },
        {
          "internalType": "bool",
          "name": "state",
          "type": "bool"
        }
      ],
      "name": "manageMarket",
      "outputs": [],
      "stateMutability": "nonpayable",
      "type": "function"
    },
    {
      "inputs": [
        {
          "internalType": "uint256",
          "name": "_id",
          "type": "uint256"
        }
      ],
      "name": "closeSale",
      "outputs": [],
      "stateMutability": "nonpayable",
      "type": "function"
    },
    {
      "inputs": [
        {
          "internalType": "uint256",
          "name": "_id",
          "type": "uint256"
        }
      ],
      "name": "changeSaleStatus",
      "outputs": [],
      "stateMutability": "nonpayable",
      "type": "function"
    },
    {
      "inputs": [
        {
          "internalType": "address",
          "name": "_from",
          "type": "address"
        },
        {
          "internalType": "address",
          "name": "_to",
          "type": "address"
        },
        {
          "internalType": "uint256",
          "name": "_tokenId",
          "type": "uint256"
        }
      ],
      "name": "transferFrom",
      "outputs": [],
      "stateMutability": "nonpayable",
      "type": "function"
    }
  ],
  "bytecode": "0x6080604052600a80546001600160a01b031916301790553480156200002357600080fd5b50604051806040016040528060088152602001674465466c7965727360c01b8152506040518060400160405280600481526020016344464c5960e01b8152506200007c62000076620000b060201b60201c565b620000b4565b81516200009190600490602085019062000104565b508051620000a790600590602084019062000104565b505050620001e6565b3390565b600080546001600160a01b038381166001600160a01b0319831681178455604051919092169283917f8be0079c531659141344cd1fd0a4f28419497f9722a3daafe3b4186f6b6457e09190a35050565b8280546200011290620001aa565b90600052602060002090601f01602090048101928262000136576000855562000181565b82601f106200015157805160ff191683800117855562000181565b8280016001018555821562000181579182015b828111156200018157825182559160200191906001019062000164565b506200018f92915062000193565b5090565b5b808211156200018f576000815560010162000194565b600181811c90821680620001bf57607f821691505b602082108103620001e057634e487b7160e01b600052602260045260246000fd5b50919050565b611e9080620001f66000396000f3fe608060405234801561001057600080fd5b50600436106101c45760003560e01c80638da5cb5b116100f9578063c87b56dd11610097578063e985e9c511610071578063e985e9c514610409578063f2fde38b14610445578063f7d9757714610458578063fff5ae4e1461046b57600080fd5b8063c87b56dd146103d0578063d328c4f3146103e3578063e7572230146103f657600080fd5b8063a4223d53116100d3578063a4223d5314610377578063a6cf8b0d1461038a578063b88d4fde146103aa578063b91a56a1146103bd57600080fd5b80638da5cb5b1461034b57806395d89b411461035c578063a22cb4651461036457600080fd5b8063443b09e8116101665780636352211e116101405780636352211e146102df578063706714cd1461030857806370a082311461031a578063715018a61461034357600080fd5b8063443b09e8146102905780634710ca86146102b95780635c622a0e146102cc57600080fd5b8063095ea7b3116101a2578063095ea7b31461023157806309d945be1461024657806323b872dd1461026a57806342842e0e1461027d57600080fd5b806301ffc9a7146101c957806306fdde03146101f1578063081812fc14610206575b600080fd5b6101dc6101d736600461181b565b61047e565b60405190151581526020015b60405180910390f35b6101f96104d0565b6040516101e89190611890565b6102196102143660046118a3565b610562565b6040516001600160a01b0390911681526020016101e8565b61024461023f3660046118d8565b6105fc565b005b6102596102543660046118a3565b61066e565b6040516101e8959493929190611902565b610244610278366004611955565b610850565b61024461028b366004611955565b61097b565b61021961029e3660046118a3565b6002602052600090815260409020546001600160a01b031681565b6102446102c73660046118a3565b61099b565b6101dc6102da3660046118a3565b610a93565b6102196102ed3660046118a3565b6000908152600260205260409020546001600160a01b031690565b6001545b6040519081526020016101e8565b61030c610328366004611991565b6001600160a01b031660009081526003602052604090205490565b610244610ac5565b6000546001600160a01b0316610219565b6101f9610afb565b6102446103723660046119ac565b610b0a565b6102446103853660046118a3565b610b19565b61030c610398366004611991565b60036020526000908152604090205481565b6102446103b8366004611a74565b610b96565b6102446103cb3660046119ac565b610c18565b6101f96103de3660046118a3565b610c6d565b6102446103f1366004611b10565b610d55565b61030c6104043660046118a3565b610ebf565b6101dc610417366004611ba0565b6001600160a01b03918216600090815260096020908152604080832093909416825291909152205460ff1690565b610244610453366004611991565b610eed565b610244610466366004611bd3565b610f85565b610244610479366004611955565b610fd8565b60006001600160e01b031982166380ac58cd60e01b14806104af57506001600160e01b03198216635b5e139f60e01b145b806104ca57506301ffc9a760e01b6001600160e01b03198316145b92915050565b6060600480546104df90611bf5565b80601f016020809104026020016040519081016040528092919081815260200182805461050b90611bf5565b80156105585780601f1061052d57610100808354040283529160200191610558565b820191906000526020600020905b81548152906001019060200180831161053b57829003601f168201915b5050505050905090565b6000818152600660205260408120546001600160a01b03166105e05760405162461bcd60e51b815260206004820152602c60248201527f4552433732313a20617070726f76656420717565727920666f72206e6f6e657860448201526b34b9ba32b73a103a37b5b2b760a11b60648201526084015b60405180910390fd5b506000908152600860205260409020546001600160a01b031690565b6000818152600b60205260409020546001600160a01b031633148061063757506000818152600260205260409020546001600160a01b031633145b61064057600080fd5b6000908152600b6020526040902080546001600160a01b0319166001600160a01b0392909216919091179055565b6001818154811061067e57600080fd5b90600052602060002090600502016000915090508060000180546106a190611bf5565b80601f01602080910402602001604051908101604052809291908181526020018280546106cd90611bf5565b801561071a5780601f106106ef5761010080835404028352916020019161071a565b820191906000526020600020905b8154815290600101906020018083116106fd57829003601f168201915b50505050509080600101805461072f90611bf5565b80601f016020809104026020016040519081016040528092919081815260200182805461075b90611bf5565b80156107a85780601f1061077d576101008083540402835291602001916107a8565b820191906000526020600020905b81548152906001019060200180831161078b57829003601f168201915b5050505050908060020180546107bd90611bf5565b80601f01602080910402602001604051908101604052809291908181526020018280546107e990611bf5565b80156108365780601f1061080b57610100808354040283529160200191610836565b820191906000526020600020905b81548152906001019060200180831161081957829003601f168201915b50505050600383015460049093015491929160ff16905085565b6001600160a01b03821661086357600080fd5b6000818152600260205260409020546001600160a01b031633148061089e57506000818152600b60205260409020546001600160a01b031633145b6108a757600080fd5b6000818152600260205260409020546001600160a01b038481169116146108cd57600080fd5b6001600160a01b03831660009081526003602052604081208054916108f183611c45565b90915550506001600160a01b038216600090815260036020526040812080549161091a83611c5c565b909155505060008181526002602052604080822080546001600160a01b0319166001600160a01b0386811691821790925591518493918716917fddf252ad1be2c89b69c2b068fc378daa952ba7f163c4a11628f55a4df523b3ef91a4505050565b61099683838360405180602001604052806000815250610b96565b505050565b6000818152600260205260409020546001600160a01b03163314806109d657506000818152600b60205260409020546001600160a01b031633145b6109df57600080fd5b600181815481106109f2576109f2611c75565b600091825260209091206004600590920201015460ff1615610a5357600060018281548110610a2357610a23611c75565b60009182526020822060059190910201600401805460ff191692151592909217909155610a5090826105fc565b50565b6001808281548110610a6757610a67611c75565b60009182526020909120600590910201600401805460ff1916911515919091179055610a5030826105fc565b600060018281548110610aa857610aa8611c75565b600091825260209091206004600590920201015460ff1692915050565b6000546001600160a01b03163314610aef5760405162461bcd60e51b81526004016105d790611c8b565b610af960006110a1565b565b6060600580546104df90611bf5565b610b153383836110f1565b5050565b336000908152600c602052604090205460ff16610b3557600080fd5b600a54604051632388654360e11b8152600481018390526001600160a01b0390911690634710ca8690602401600060405180830381600087803b158015610b7b57600080fd5b505af1158015610b8f573d6000803e3d6000fd5b5050505050565b610ba033836111bf565b610c065760405162461bcd60e51b815260206004820152603160248201527f4552433732313a207472616e736665722063616c6c6572206973206e6f74206f6044820152701ddb995c881b9bdc88185c1c1c9bdd9959607a1b60648201526084016105d7565b610c12848484846112b6565b50505050565b6000546001600160a01b03163314610c425760405162461bcd60e51b81526004016105d790611c8b565b6001600160a01b03919091166000908152600c60205260409020805460ff1916911515919091179055565b6000818152600660205260409020546060906001600160a01b0316610cec5760405162461bcd60e51b815260206004820152602f60248201527f4552433732314d657461646174613a2055524920717565727920666f72206e6f60448201526e3732bc34b9ba32b73a103a37b5b2b760891b60648201526084016105d7565b6000610d0360408051602081019091526000815290565b90506000815111610d235760405180602001604052806000815250610d4e565b80610d2d846112e9565b604051602001610d3e929190611cc0565b6040516020818303038152906040525b9392505050565b6040805160a081018252858152602080820186905291810184905260608101839052600060808201819052600180548082018255915281518051929360059092027fb10e2d527612073b26eecdfd717e6a320cf44b4afac2b0732d9fcbe2b7fa0cf60192610dc6928492019061176c565b506020828101518051610ddf926001850192019061176c565b5060408201518051610dfb91600284019160209091019061176c565b50606082015160038201556080909101516004909101805460ff191691151591909117905560018054600091610e3091611cef565b600081815260026020908152604080832080546001600160a01b031916339081179091558352600390915281208054929350600192909190610e73908490611d06565b90915550506040517f103d8a0318863f4409aa9cd3ba0a3cd74b5d2becba34d0fbd6e3320f6c18d47890610eb09083908890889088908890611d1e565b60405180910390a15050505050565b600060018281548110610ed457610ed4611c75565b9060005260206000209060050201600301549050919050565b6000546001600160a01b03163314610f175760405162461bcd60e51b81526004016105d790611c8b565b6001600160a01b038116610f7c5760405162461bcd60e51b815260206004820152602660248201527f4f776e61626c653a206e6577206f776e657220697320746865207a65726f206160448201526564647265737360d01b60648201526084016105d7565b610a50816110a1565b60008281526002602052604090205482906001600160a01b03163314610faa57600080fd5b8160018481548110610fbe57610fbe611c75565b906000526020600020906005020160030181905550505050565b336000908152600c602052604090205460ff16610ff457600080fd5b806001818154811061100857611008611c75565b600091825260209091206004600590920201015460ff16151560011461102d57600080fd5b600a546040516323b872dd60e01b81526001600160a01b038681166004830152858116602483015260448201859052909116906323b872dd90606401600060405180830381600087803b15801561108357600080fd5b505af1158015611097573d6000803e3d6000fd5b5050505050505050565b600080546001600160a01b038381166001600160a01b0319831681178455604051919092169283917f8be0079c531659141344cd1fd0a4f28419497f9722a3daafe3b4186f6b6457e09190a35050565b816001600160a01b0316836001600160a01b0316036111525760405162461bcd60e51b815260206004820152601960248201527f4552433732313a20617070726f766520746f2063616c6c65720000000000000060448201526064016105d7565b6001600160a01b03838116600081815260096020908152604080832094871680845294825291829020805460ff191686151590811790915591519182527f17307eab39ab6107e8899845ad3d59bd9653f200f220920489ca2b5937696c31910160405180910390a3505050565b6000818152600660205260408120546001600160a01b03166112385760405162461bcd60e51b815260206004820152602c60248201527f4552433732313a206f70657261746f7220717565727920666f72206e6f6e657860448201526b34b9ba32b73a103a37b5b2b760a11b60648201526084016105d7565b6000611243836113ea565b9050806001600160a01b0316846001600160a01b0316148061127e5750836001600160a01b031661127384610562565b6001600160a01b0316145b806112ae57506001600160a01b0380821660009081526009602090815260408083209388168352929052205460ff165b949350505050565b6112c1848484611461565b6112cd848484846115fd565b610c125760405162461bcd60e51b81526004016105d790611d70565b6060816000036113105750506040805180820190915260018152600360fc1b602082015290565b8160005b811561133a578061132481611c5c565b91506113339050600a83611dd8565b9150611314565b60008167ffffffffffffffff811115611355576113556119e8565b6040519080825280601f01601f19166020018201604052801561137f576020820181803683370190505b5090505b84156112ae57611394600183611cef565b91506113a1600a86611dec565b6113ac906030611d06565b60f81b8183815181106113c1576113c1611c75565b60200101906001600160f81b031916908160001a9053506113e3600a86611dd8565b9450611383565b6000818152600660205260408120546001600160a01b0316806104ca5760405162461bcd60e51b815260206004820152602960248201527f4552433732313a206f776e657220717565727920666f72206e6f6e657869737460448201526832b73a103a37b5b2b760b91b60648201526084016105d7565b826001600160a01b0316611474826113ea565b6001600160a01b0316146114d85760405162461bcd60e51b815260206004820152602560248201527f4552433732313a207472616e736665722066726f6d20696e636f72726563742060448201526437bbb732b960d91b60648201526084016105d7565b6001600160a01b03821661153a5760405162461bcd60e51b8152602060048201526024808201527f4552433732313a207472616e7366657220746f20746865207a65726f206164646044820152637265737360e01b60648201526084016105d7565b6115456000826116fe565b6001600160a01b038316600090815260076020526040812080546001929061156e908490611cef565b90915550506001600160a01b038216600090815260076020526040812080546001929061159c908490611d06565b909155505060008181526006602052604080822080546001600160a01b0319166001600160a01b0386811691821790925591518493918716917fddf252ad1be2c89b69c2b068fc378daa952ba7f163c4a11628f55a4df523b3ef91a4505050565b60006001600160a01b0384163b156116f357604051630a85bd0160e11b81526001600160a01b0385169063150b7a0290611641903390899088908890600401611e00565b6020604051808303816000875af192505050801561167c575060408051601f3d908101601f1916820190925261167991810190611e3d565b60015b6116d9573d8080156116aa576040519150601f19603f3d011682016040523d82523d6000602084013e6116af565b606091505b5080516000036116d15760405162461bcd60e51b81526004016105d790611d70565b805181602001fd5b6001600160e01b031916630a85bd0160e11b1490506112ae565b506001949350505050565b600081815260086020526040902080546001600160a01b0319166001600160a01b0384169081179091558190611733826113ea565b6001600160a01b03167f8c5be1e5ebec7d5bd14f71427d1e84f3dd0314c0f7b2291e5b200ac8c7c3b92560405160405180910390a45050565b82805461177890611bf5565b90600052602060002090601f01602090048101928261179a57600085556117e0565b82601f106117b357805160ff19168380011785556117e0565b828001600101855582156117e0579182015b828111156117e05782518255916020019190600101906117c5565b506117ec9291506117f0565b5090565b5b808211156117ec57600081556001016117f1565b6001600160e01b031981168114610a5057600080fd5b60006020828403121561182d57600080fd5b8135610d4e81611805565b60005b8381101561185357818101518382015260200161183b565b83811115610c125750506000910152565b6000815180845261187c816020860160208601611838565b601f01601f19169290920160200192915050565b602081526000610d4e6020830184611864565b6000602082840312156118b557600080fd5b5035919050565b80356001600160a01b03811681146118d357600080fd5b919050565b600080604083850312156118eb57600080fd5b6118f4836118bc565b946020939093013593505050565b60a08152600061191560a0830188611864565b82810360208401526119278188611864565b9050828103604084015261193b8187611864565b606084019590955250509015156080909101529392505050565b60008060006060848603121561196a57600080fd5b611973846118bc565b9250611981602085016118bc565b9150604084013590509250925092565b6000602082840312156119a357600080fd5b610d4e826118bc565b600080604083850312156119bf57600080fd5b6119c8836118bc565b9150602083013580151581146119dd57600080fd5b809150509250929050565b634e487b7160e01b600052604160045260246000fd5b600067ffffffffffffffff80841115611a1957611a196119e8565b604051601f8501601f19908116603f01168101908282118183101715611a4157611a416119e8565b81604052809350858152868686011115611a5a57600080fd5b858560208301376000602087830101525050509392505050565b60008060008060808587031215611a8a57600080fd5b611a93856118bc565b9350611aa1602086016118bc565b925060408501359150606085013567ffffffffffffffff811115611ac457600080fd5b8501601f81018713611ad557600080fd5b611ae4878235602084016119fe565b91505092959194509250565b600082601f830112611b0157600080fd5b610d4e838335602085016119fe565b60008060008060808587031215611b2657600080fd5b843567ffffffffffffffff80821115611b3e57600080fd5b611b4a88838901611af0565b95506020870135915080821115611b6057600080fd5b611b6c88838901611af0565b94506040870135915080821115611b8257600080fd5b50611b8f87828801611af0565b949793965093946060013593505050565b60008060408385031215611bb357600080fd5b611bbc836118bc565b9150611bca602084016118bc565b90509250929050565b60008060408385031215611be657600080fd5b50508035926020909101359150565b600181811c90821680611c0957607f821691505b602082108103611c2957634e487b7160e01b600052602260045260246000fd5b50919050565b634e487b7160e01b600052601160045260246000fd5b600081611c5457611c54611c2f565b506000190190565b600060018201611c6e57611c6e611c2f565b5060010190565b634e487b7160e01b600052603260045260246000fd5b6020808252818101527f4f776e61626c653a2063616c6c6572206973206e6f7420746865206f776e6572604082015260600190565b60008351611cd2818460208801611838565b835190830190611ce6818360208801611838565b01949350505050565b600082821015611d0157611d01611c2f565b500390565b60008219821115611d1957611d19611c2f565b500190565b85815260a060208201526000611d3760a0830187611864565b8281036040840152611d498187611864565b90508281036060840152611d5d8186611864565b9150508260808301529695505050505050565b60208082526032908201527f4552433732313a207472616e7366657220746f206e6f6e20455243373231526560408201527131b2b4bb32b91034b6b83632b6b2b73a32b960711b606082015260800190565b634e487b7160e01b600052601260045260246000fd5b600082611de757611de7611dc2565b500490565b600082611dfb57611dfb611dc2565b500690565b6001600160a01b0385811682528416602082015260408101839052608060608201819052600090611e3390830184611864565b9695505050505050565b600060208284031215611e4f57600080fd5b8151610d4e8161180556fea2646970667358221220477a86fbc8a85c6aa879d097670bcd9dbe8ec2abf7f5366743a8ebcaa0af77ee64736f6c634300080d0033",
  "immutableReferences": {},
  "source": "// SPDX-License-Identifier: MIT\npragma solidity ^0.8;\nimport \"@openzeppelin/contracts/token/ERC721/ERC721.sol\";\nimport \"./flyerfactory.sol\";\nimport \"@openzeppelin/contracts/token/ERC721/IERC721.sol\";\nimport \"./IFlyerOwnership.sol\";\n\ncontract FlyerOwnership is FlyerFactory, ERC721 {\n    IFlyerOwnership thisContract = IFlyerOwnership(address(this));\n\n    modifier onlyOwnerOf(uint _id) {\n        require(flyerToOwner[_id] == msg.sender );\n        _;\n    }\n\n\n    modifier canBuy(uint _id) {\n        require(flyers[_id].status == true);\n        _;\n    }\n\n\n    mapping (uint => address) flyerApproval;\n    mapping (address => bool) approvedMarket;\n\n    modifier validMarket(){\n        require(approvedMarket[msg.sender]);\n        _;\n    }\n\n    constructor() ERC721(\"DeFlyers\",\"DFLY\") {\n    }\n    \n    function balanceOf(address _owner) public view virtual override returns (uint256){\n        return ownerFlyerCount[_owner];\n    }\n    function ownerOf(uint256 _tokenId) public view virtual override returns (address){\n        return flyerToOwner[_tokenId];\n    }\n\n    function getPrice(uint256 _tokenId) external view returns (uint){\n        return flyers[_tokenId].price;\n    }\n    \n    function getStatus(uint256 _tokenId) external view returns (bool){\n        return flyers[_tokenId].status;\n    }\n\n\n    function approve(address to, uint256 tokenId) public virtual override {\n        require(flyerApproval[tokenId] == msg.sender || msg.sender == ownerOf(tokenId));\n        flyerApproval[tokenId] = to;\n    }\n\n    function setPrice(uint _tokenId, uint _price) external onlyOwnerOf(_tokenId){\n        flyers[_tokenId].price = _price;\n    }\n\n\n    function marketSend(address _from,address _to,uint256 _tokenId) public validMarket() canBuy(_tokenId){\n        thisContract.transferFrom(_from,_to,_tokenId);\n    }\n\n    function manageMarket(address _marketAddress, bool state) external onlyOwner(){\n        approvedMarket[_marketAddress] = state;\n    }\n\n    // This contract is approved only if the status of the sale is true\n    function closeSale(uint _id) public validMarket(){\n        thisContract.changeSaleStatus(_id);\n    }\n\n    // Change the status of your flyer => if true someone can buy it\n    function changeSaleStatus(uint _id) public {\n        require(ownerOf(_id) == msg.sender || msg.sender == flyerApproval[_id]);\n        if(flyers[_id].status){\n            flyers[_id].status = false;\n            // Only the owner can transfer now\n            approve(address(0),_id);\n        }\n        else{\n            flyers[_id].status = true;\n            // The contract can transfer\n            approve(address(this),_id);\n        }\n    }\n\n    function transferFrom(address _from, address _to, uint256 _tokenId) public override {\n        require(_to != address(0));\n        require(msg.sender == flyerToOwner[_tokenId] || msg.sender == flyerApproval[_tokenId]);\n        require(_from == flyerToOwner[_tokenId]);\n        ownerFlyerCount[_from]--;\n        ownerFlyerCount[_to]++;\n        flyerToOwner[_tokenId] = _to;\n        emit Transfer(_from,_to,_tokenId);\n    }\n\n\n    \n}\n",
  "sourcePath": "/home/roman/Projets/WEB3/DeFlyers/contracts/flyerownership.sol",
  "compiler": {
    "name": "solc",
    "version": "0.8.13+commit.abaa5c0e.Emscripten.clang"
  },
  "schemaVersion": "3.4.6",
  "updatedAt": "2022-04-15T20:23:57.139Z",
  "devdoc": {
    "kind": "dev",
    "methods": {
      "approve(address,uint256)": {
        "details": "See {IERC721-approve}."
      },
      "getApproved(uint256)": {
        "details": "See {IERC721-getApproved}."
      },
      "isApprovedForAll(address,address)": {
        "details": "See {IERC721-isApprovedForAll}."
      },
      "name()": {
        "details": "See {IERC721Metadata-name}."
      },
      "owner()": {
        "details": "Returns the address of the current owner."
      },
      "renounceOwnership()": {
        "details": "Leaves the contract without owner. It will not be possible to call `onlyOwner` functions anymore. Can only be called by the current owner. NOTE: Renouncing ownership will leave the contract without an owner, thereby removing any functionality that is only available to the owner."
      },
      "safeTransferFrom(address,address,uint256)": {
        "details": "See {IERC721-safeTransferFrom}."
      },
      "safeTransferFrom(address,address,uint256,bytes)": {
        "details": "See {IERC721-safeTransferFrom}."
      },
      "setApprovalForAll(address,bool)": {
        "details": "See {IERC721-setApprovalForAll}."
      },
      "supportsInterface(bytes4)": {
        "details": "See {IERC165-supportsInterface}."
      },
      "symbol()": {
        "details": "See {IERC721Metadata-symbol}."
      },
      "tokenURI(uint256)": {
        "details": "See {IERC721Metadata-tokenURI}."
      },
      "transferOwnership(address)": {
        "details": "Transfers ownership of the contract to a new account (`newOwner`). Can only be called by the current owner."
      }
    },
    "version": 1
  },
  "userdoc": {
    "kind": "user",
    "methods": {},
    "version": 1
  }
}