{
  "contractName": "FlyerFactory",
  "abi": [
    {
      "anonymous": false,
      "inputs": [
        {
          "indexed": false,
          "internalType": "uint256",
          "name": "id",
          "type": "uint256"
        },
        {
          "indexed": false,
          "internalType": "string",
          "name": "name",
          "type": "string"
        },
        {
          "indexed": false,
          "internalType": "string",
          "name": "description",
          "type": "string"
        },
        {
          "indexed": false,
          "internalType": "string",
          "name": "image",
          "type": "string"
        },
        {
          "indexed": false,
          "internalType": "uint256",
          "name": "price",
          "type": "uint256"
        }
      ],
      "name": "NewFlyer",
      "type": "event"
    },
    {
      "anonymous": false,
      "inputs": [
        {
          "indexed": true,
          "internalType": "address",
          "name": "previousOwner",
          "type": "address"
        },
        {
          "indexed": true,
          "internalType": "address",
          "name": "newOwner",
          "type": "address"
        }
      ],
      "name": "OwnershipTransferred",
      "type": "event"
    },
    {
      "inputs": [
        {
          "internalType": "uint256",
          "name": "",
          "type": "uint256"
        }
      ],
      "name": "flyerToOwner",
      "outputs": [
        {
          "internalType": "address",
          "name": "",
          "type": "address"
        }
      ],
      "stateMutability": "view",
      "type": "function"
    },
    {
      "inputs": [
        {
          "internalType": "uint256",
          "name": "",
          "type": "uint256"
        }
      ],
      "name": "flyers",
      "outputs": [
        {
          "internalType": "string",
          "name": "name",
          "type": "string"
        },
        {
          "internalType": "string",
          "name": "description",
          "type": "string"
        },
        {
          "internalType": "string",
          "name": "image",
          "type": "string"
        },
        {
          "internalType": "uint256",
          "name": "price",
          "type": "uint256"
        },
        {
          "internalType": "bool",
          "name": "status",
          "type": "bool"
        }
      ],
      "stateMutability": "view",
      "type": "function"
    },
    {
      "inputs": [],
      "name": "owner",
      "outputs": [
        {
          "internalType": "address",
          "name": "",
          "type": "address"
        }
      ],
      "stateMutability": "view",
      "type": "function"
    },
    {
      "inputs": [
        {
          "internalType": "address",
          "name": "",
          "type": "address"
        }
      ],
      "name": "ownerFlyerCount",
      "outputs": [
        {
          "internalType": "uint256",
          "name": "",
          "type": "uint256"
        }
      ],
      "stateMutability": "view",
      "type": "function"
    },
    {
      "inputs": [],
      "name": "renounceOwnership",
      "outputs": [],
      "stateMutability": "nonpayable",
      "type": "function"
    },
    {
      "inputs": [
        {
          "internalType": "address",
          "name": "newOwner",
          "type": "address"
        }
      ],
      "name": "transferOwnership",
      "outputs": [],
      "stateMutability": "nonpayable",
      "type": "function"
    },
    {
      "inputs": [
        {
          "internalType": "string",
          "name": "_name",
          "type": "string"
        },
        {
          "internalType": "string",
          "name": "_description",
          "type": "string"
        },
        {
          "internalType": "string",
          "name": "_image",
          "type": "string"
        },
        {
          "internalType": "uint256",
          "name": "_price",
          "type": "uint256"
        }
      ],
      "name": "createFlyer",
      "outputs": [],
      "stateMutability": "nonpayable",
      "type": "function"
    },
    {
      "inputs": [],
      "name": "getFlyerLength",
      "outputs": [
        {
          "internalType": "uint256",
          "name": "",
          "type": "uint256"
        }
      ],
      "stateMutability": "view",
      "type": "function"
    }
  ],
  "bytecode": "0x608060405234801561001057600080fd5b5061001a3361001f565b61006f565b600080546001600160a01b038381166001600160a01b0319831681178455604051919092169283917f8be0079c531659141344cd1fd0a4f28419497f9722a3daafe3b4186f6b6457e09190a35050565b6109fc8061007e6000396000f3fe608060405234801561001057600080fd5b50600436106100885760003560e01c80638da5cb5b1161005b5780638da5cb5b14610117578063a6cf8b0d14610128578063d328c4f314610148578063f2fde38b1461015b57600080fd5b806309d945be1461008d578063443b09e8146100ba578063706714cd146100fb578063715018a61461010d575b600080fd5b6100a061009b3660046106d9565b61016e565b6040516100b195949392919061073f565b60405180910390f35b6100e36100c83660046106d9565b6002602052600090815260409020546001600160a01b031681565b6040516001600160a01b0390911681526020016100b1565b6001545b6040519081526020016100b1565b610115610350565b005b6000546001600160a01b03166100e3565b6100ff610136366004610792565b60036020526000908152604090205481565b610115610156366004610865565b6103bb565b610115610169366004610792565b610525565b6001818154811061017e57600080fd5b90600052602060002090600502016000915090508060000180546101a1906108f5565b80601f01602080910402602001604051908101604052809291908181526020018280546101cd906108f5565b801561021a5780601f106101ef5761010080835404028352916020019161021a565b820191906000526020600020905b8154815290600101906020018083116101fd57829003601f168201915b50505050509080600101805461022f906108f5565b80601f016020809104026020016040519081016040528092919081815260200182805461025b906108f5565b80156102a85780601f1061027d576101008083540402835291602001916102a8565b820191906000526020600020905b81548152906001019060200180831161028b57829003601f168201915b5050505050908060020180546102bd906108f5565b80601f01602080910402602001604051908101604052809291908181526020018280546102e9906108f5565b80156103365780601f1061030b57610100808354040283529160200191610336565b820191906000526020600020905b81548152906001019060200180831161031957829003601f168201915b50505050600383015460049093015491929160ff16905085565b6000546001600160a01b031633146103af5760405162461bcd60e51b815260206004820181905260248201527f4f776e61626c653a2063616c6c6572206973206e6f7420746865206f776e657260448201526064015b60405180910390fd5b6103b960006105f0565b565b6040805160a081018252858152602080820186905291810184905260608101839052600060808201819052600180548082018255915281518051929360059092027fb10e2d527612073b26eecdfd717e6a320cf44b4afac2b0732d9fcbe2b7fa0cf6019261042c9284920190610640565b5060208281015180516104459260018501920190610640565b5060408201518051610461916002840191602090910190610640565b50606082015160038201556080909101516004909101805460ff19169115159190911790556001805460009161049691610945565b600081815260026020908152604080832080546001600160a01b0319163390811790915583526003909152812080549293506001929091906104d990849061095c565b90915550506040517f103d8a0318863f4409aa9cd3ba0a3cd74b5d2becba34d0fbd6e3320f6c18d478906105169083908890889088908890610974565b60405180910390a15050505050565b6000546001600160a01b0316331461057f5760405162461bcd60e51b815260206004820181905260248201527f4f776e61626c653a2063616c6c6572206973206e6f7420746865206f776e657260448201526064016103a6565b6001600160a01b0381166105e45760405162461bcd60e51b815260206004820152602660248201527f4f776e61626c653a206e6577206f776e657220697320746865207a65726f206160448201526564647265737360d01b60648201526084016103a6565b6105ed816105f0565b50565b600080546001600160a01b038381166001600160a01b0319831681178455604051919092169283917f8be0079c531659141344cd1fd0a4f28419497f9722a3daafe3b4186f6b6457e09190a35050565b82805461064c906108f5565b90600052602060002090601f01602090048101928261066e57600085556106b4565b82601f1061068757805160ff19168380011785556106b4565b828001600101855582156106b4579182015b828111156106b4578251825591602001919060010190610699565b506106c09291506106c4565b5090565b5b808211156106c057600081556001016106c5565b6000602082840312156106eb57600080fd5b5035919050565b6000815180845260005b81811015610718576020818501810151868301820152016106fc565b8181111561072a576000602083870101525b50601f01601f19169290920160200192915050565b60a08152600061075260a08301886106f2565b828103602084015261076481886106f2565b9050828103604084015261077881876106f2565b606084019590955250509015156080909101529392505050565b6000602082840312156107a457600080fd5b81356001600160a01b03811681146107bb57600080fd5b9392505050565b634e487b7160e01b600052604160045260246000fd5b600082601f8301126107e957600080fd5b813567ffffffffffffffff80821115610804576108046107c2565b604051601f8301601f19908116603f0116810190828211818310171561082c5761082c6107c2565b8160405283815286602085880101111561084557600080fd5b836020870160208301376000602085830101528094505050505092915050565b6000806000806080858703121561087b57600080fd5b843567ffffffffffffffff8082111561089357600080fd5b61089f888389016107d8565b955060208701359150808211156108b557600080fd5b6108c1888389016107d8565b945060408701359150808211156108d757600080fd5b506108e4878288016107d8565b949793965093946060013593505050565b600181811c9082168061090957607f821691505b60208210810361092957634e487b7160e01b600052602260045260246000fd5b50919050565b634e487b7160e01b600052601160045260246000fd5b6000828210156109575761095761092f565b500390565b6000821982111561096f5761096f61092f565b500190565b85815260a06020820152600061098d60a08301876106f2565b828103604084015261099f81876106f2565b905082810360608401526109b381866106f2565b915050826080830152969550505050505056fea26469706673582212201c4db4e53c58cc6a54ec75c7a2c252c2dfaa98469b090570f4c3cffb01d6742064736f6c634300080d0033",
  "immutableReferences": {},
  "source": "// SPDX-License-Identifier: MIT\npragma solidity ^0.8;\nimport \"@openzeppelin/contracts/access/Ownable.sol\";\n\ncontract FlyerFactory is Ownable{\n    struct Flyer {\n        string name;\n        string description;\n        string image;\n        uint price;\n        bool status;\n    }\n\n    Flyer[] public flyers;\n\n    event NewFlyer(uint id, string name, string description, string image, uint price);\n\n    mapping (uint => address) public flyerToOwner;\n    mapping (address => uint) public ownerFlyerCount;\n\n    function createFlyer(string memory _name, string memory _description, string memory _image, uint _price) public{\n        flyers.push(Flyer(_name,_description,_image,_price,false));\n        uint id = flyers.length - 1;\n        flyerToOwner[id] = msg.sender;\n        ownerFlyerCount[msg.sender] += 1;\n        emit NewFlyer(id,_name,_description,_image,_price);\n    }\n\n    function getFlyerLength() external view returns(uint){\n        return flyers.length;\n    }\n}\n",
  "sourcePath": "/home/roman/Projets/WEB3/DeFlyers/contracts/flyerfactory.sol",
  "compiler": {
    "name": "solc",
    "version": "0.8.13+commit.abaa5c0e.Emscripten.clang"
  },
  "schemaVersion": "3.4.6",
  "updatedAt": "2022-04-15T20:23:57.131Z",
  "devdoc": {
    "kind": "dev",
    "methods": {
      "owner()": {
        "details": "Returns the address of the current owner."
      },
      "renounceOwnership()": {
        "details": "Leaves the contract without owner. It will not be possible to call `onlyOwner` functions anymore. Can only be called by the current owner. NOTE: Renouncing ownership will leave the contract without an owner, thereby removing any functionality that is only available to the owner."
      },
      "transferOwnership(address)": {
        "details": "Transfers ownership of the contract to a new account (`newOwner`). Can only be called by the current owner."
      }
    },
    "version": 1
  },
  "userdoc": {
    "kind": "user",
    "methods": {},
    "version": 1
  }
}