{
  "contractName": "FlyerFactory",
  "abi": [
    {
      "anonymous": false,
      "inputs": [
        {
          "indexed": false,
          "internalType": "uint256",
          "name": "id",
          "type": "uint256"
        },
        {
          "indexed": false,
          "internalType": "string",
          "name": "name",
          "type": "string"
        },
        {
          "indexed": false,
          "internalType": "string",
          "name": "description",
          "type": "string"
        },
        {
          "indexed": false,
          "internalType": "string",
          "name": "image",
          "type": "string"
        },
        {
          "indexed": false,
          "internalType": "uint256",
          "name": "price",
          "type": "uint256"
        }
      ],
      "name": "NewFlyer",
      "type": "event"
    },
    {
      "anonymous": false,
      "inputs": [
        {
          "indexed": true,
          "internalType": "address",
          "name": "previousOwner",
          "type": "address"
        },
        {
          "indexed": true,
          "internalType": "address",
          "name": "newOwner",
          "type": "address"
        }
      ],
      "name": "OwnershipTransferred",
      "type": "event"
    },
    {
      "inputs": [
        {
          "internalType": "uint256",
          "name": "",
          "type": "uint256"
        }
      ],
      "name": "flyerToOwner",
      "outputs": [
        {
          "internalType": "address",
          "name": "",
          "type": "address"
        }
      ],
      "stateMutability": "view",
      "type": "function"
    },
    {
      "inputs": [
        {
          "internalType": "uint256",
          "name": "",
          "type": "uint256"
        }
      ],
      "name": "flyers",
      "outputs": [
        {
          "internalType": "string",
          "name": "name",
          "type": "string"
        },
        {
          "internalType": "string",
          "name": "description",
          "type": "string"
        },
        {
          "internalType": "string",
          "name": "image",
          "type": "string"
        },
        {
          "internalType": "uint256",
          "name": "price",
          "type": "uint256"
        },
        {
          "internalType": "bool",
          "name": "status",
          "type": "bool"
        }
      ],
      "stateMutability": "view",
      "type": "function"
    },
    {
      "inputs": [],
      "name": "owner",
      "outputs": [
        {
          "internalType": "address",
          "name": "",
          "type": "address"
        }
      ],
      "stateMutability": "view",
      "type": "function"
    },
    {
      "inputs": [
        {
          "internalType": "address",
          "name": "",
          "type": "address"
        }
      ],
      "name": "ownerFlyerCount",
      "outputs": [
        {
          "internalType": "uint256",
          "name": "",
          "type": "uint256"
        }
      ],
      "stateMutability": "view",
      "type": "function"
    },
    {
      "inputs": [],
      "name": "renounceOwnership",
      "outputs": [],
      "stateMutability": "nonpayable",
      "type": "function"
    },
    {
      "inputs": [
        {
          "internalType": "address",
          "name": "newOwner",
          "type": "address"
        }
      ],
      "name": "transferOwnership",
      "outputs": [],
      "stateMutability": "nonpayable",
      "type": "function"
    },
    {
      "inputs": [
        {
          "internalType": "string",
          "name": "_name",
          "type": "string"
        },
        {
          "internalType": "string",
          "name": "_description",
          "type": "string"
        },
        {
          "internalType": "string",
          "name": "_image",
          "type": "string"
        },
        {
          "internalType": "uint256",
          "name": "_price",
          "type": "uint256"
        }
      ],
      "name": "createFlyer",
      "outputs": [],
      "stateMutability": "nonpayable",
      "type": "function"
    }
  ],
  "bytecode": "0x608060405234801561001057600080fd5b5061001a3361001f565b61006f565b600080546001600160a01b038381166001600160a01b0319831681178455604051919092169283917f8be0079c531659141344cd1fd0a4f28419497f9722a3daafe3b4186f6b6457e09190a35050565b6109ed8061007e6000396000f3fe608060405234801561001057600080fd5b506004361061007d5760003560e01c80638da5cb5b1161005b5780638da5cb5b146100fa578063a6cf8b0d1461010b578063d328c4f314610139578063f2fde38b1461014c57600080fd5b806309d945be14610082578063443b09e8146100af578063715018a6146100f0575b600080fd5b6100956100903660046106ca565b61015f565b6040516100a6959493929190610730565b60405180910390f35b6100d86100bd3660046106ca565b6002602052600090815260409020546001600160a01b031681565b6040516001600160a01b0390911681526020016100a6565b6100f8610341565b005b6000546001600160a01b03166100d8565b61012b610119366004610783565b60036020526000908152604090205481565b6040519081526020016100a6565b6100f8610147366004610856565b6103ac565b6100f861015a366004610783565b610516565b6001818154811061016f57600080fd5b9060005260206000209060050201600091509050806000018054610192906108e6565b80601f01602080910402602001604051908101604052809291908181526020018280546101be906108e6565b801561020b5780601f106101e05761010080835404028352916020019161020b565b820191906000526020600020905b8154815290600101906020018083116101ee57829003601f168201915b505050505090806001018054610220906108e6565b80601f016020809104026020016040519081016040528092919081815260200182805461024c906108e6565b80156102995780601f1061026e57610100808354040283529160200191610299565b820191906000526020600020905b81548152906001019060200180831161027c57829003601f168201915b5050505050908060020180546102ae906108e6565b80601f01602080910402602001604051908101604052809291908181526020018280546102da906108e6565b80156103275780601f106102fc57610100808354040283529160200191610327565b820191906000526020600020905b81548152906001019060200180831161030a57829003601f168201915b50505050600383015460049093015491929160ff16905085565b6000546001600160a01b031633146103a05760405162461bcd60e51b815260206004820181905260248201527f4f776e61626c653a2063616c6c6572206973206e6f7420746865206f776e657260448201526064015b60405180910390fd5b6103aa60006105e1565b565b6040805160a081018252858152602080820186905291810184905260608101839052600060808201819052600180548082018255915281518051929360059092027fb10e2d527612073b26eecdfd717e6a320cf44b4afac2b0732d9fcbe2b7fa0cf6019261041d9284920190610631565b5060208281015180516104369260018501920190610631565b5060408201518051610452916002840191602090910190610631565b50606082015160038201556080909101516004909101805460ff19169115159190911790556001805460009161048791610936565b600081815260026020908152604080832080546001600160a01b0319163390811790915583526003909152812080549293506001929091906104ca90849061094d565b90915550506040517f103d8a0318863f4409aa9cd3ba0a3cd74b5d2becba34d0fbd6e3320f6c18d478906105079083908890889088908890610965565b60405180910390a15050505050565b6000546001600160a01b031633146105705760405162461bcd60e51b815260206004820181905260248201527f4f776e61626c653a2063616c6c6572206973206e6f7420746865206f776e65726044820152606401610397565b6001600160a01b0381166105d55760405162461bcd60e51b815260206004820152602660248201527f4f776e61626c653a206e6577206f776e657220697320746865207a65726f206160448201526564647265737360d01b6064820152608401610397565b6105de816105e1565b50565b600080546001600160a01b038381166001600160a01b0319831681178455604051919092169283917f8be0079c531659141344cd1fd0a4f28419497f9722a3daafe3b4186f6b6457e09190a35050565b82805461063d906108e6565b90600052602060002090601f01602090048101928261065f57600085556106a5565b82601f1061067857805160ff19168380011785556106a5565b828001600101855582156106a5579182015b828111156106a557825182559160200191906001019061068a565b506106b19291506106b5565b5090565b5b808211156106b157600081556001016106b6565b6000602082840312156106dc57600080fd5b5035919050565b6000815180845260005b81811015610709576020818501810151868301820152016106ed565b8181111561071b576000602083870101525b50601f01601f19169290920160200192915050565b60a08152600061074360a08301886106e3565b828103602084015261075581886106e3565b9050828103604084015261076981876106e3565b606084019590955250509015156080909101529392505050565b60006020828403121561079557600080fd5b81356001600160a01b03811681146107ac57600080fd5b9392505050565b634e487b7160e01b600052604160045260246000fd5b600082601f8301126107da57600080fd5b813567ffffffffffffffff808211156107f5576107f56107b3565b604051601f8301601f19908116603f0116810190828211818310171561081d5761081d6107b3565b8160405283815286602085880101111561083657600080fd5b836020870160208301376000602085830101528094505050505092915050565b6000806000806080858703121561086c57600080fd5b843567ffffffffffffffff8082111561088457600080fd5b610890888389016107c9565b955060208701359150808211156108a657600080fd5b6108b2888389016107c9565b945060408701359150808211156108c857600080fd5b506108d5878288016107c9565b949793965093946060013593505050565b600181811c908216806108fa57607f821691505b60208210810361091a57634e487b7160e01b600052602260045260246000fd5b50919050565b634e487b7160e01b600052601160045260246000fd5b60008282101561094857610948610920565b500390565b6000821982111561096057610960610920565b500190565b85815260a06020820152600061097e60a08301876106e3565b828103604084015261099081876106e3565b905082810360608401526109a481866106e3565b915050826080830152969550505050505056fea26469706673582212202f1ba30380f47682d2d0f036d8b14440d4d4d3244e5e3ccbd9195be42efde6d164736f6c634300080d0033",
  "immutableReferences": {},
  "source": "// SPDX-License-Identifier: MIT\npragma solidity ^0.8;\nimport \"@openzeppelin/contracts/access/Ownable.sol\";\n\ncontract FlyerFactory is Ownable{\n    struct Flyer {\n        string name;\n        string description;\n        string image;\n        uint price;\n        bool status;\n    }\n\n    Flyer[] public flyers;\n\n    event NewFlyer(uint id, string name, string description, string image, uint price);\n\n    mapping (uint => address) public flyerToOwner;\n    mapping (address => uint) public ownerFlyerCount;\n\n    function createFlyer(string memory _name, string memory _description, string memory _image, uint _price) public{\n        flyers.push(Flyer(_name,_description,_image,_price,false));\n        uint id = flyers.length - 1;\n        flyerToOwner[id] = msg.sender;\n        ownerFlyerCount[msg.sender] += 1;\n        emit NewFlyer(id,_name,_description,_image,_price);\n    }\n}\n",
  "sourcePath": "/home/roman/Projets/WEB3/DeFlyers/contracts/flyerfactory.sol",
  "compiler": {
    "name": "solc",
    "version": "0.8.13+commit.abaa5c0e.Emscripten.clang"
  },
  "schemaVersion": "3.4.6",
  "updatedAt": "2022-04-09T15:53:29.020Z",
  "devdoc": {
    "kind": "dev",
    "methods": {
      "owner()": {
        "details": "Returns the address of the current owner."
      },
      "renounceOwnership()": {
        "details": "Leaves the contract without owner. It will not be possible to call `onlyOwner` functions anymore. Can only be called by the current owner. NOTE: Renouncing ownership will leave the contract without an owner, thereby removing any functionality that is only available to the owner."
      },
      "transferOwnership(address)": {
        "details": "Transfers ownership of the contract to a new account (`newOwner`). Can only be called by the current owner."
      }
    },
    "version": 1
  },
  "userdoc": {
    "kind": "user",
    "methods": {},
    "version": 1
  }
}