{
  "contractName": "FlyerOwnership",
  "abi": [
    {
      "inputs": [],
      "stateMutability": "nonpayable",
      "type": "constructor"
    },
    {
      "anonymous": false,
      "inputs": [
        {
          "indexed": true,
          "internalType": "address",
          "name": "owner",
          "type": "address"
        },
        {
          "indexed": true,
          "internalType": "address",
          "name": "approved",
          "type": "address"
        },
        {
          "indexed": true,
          "internalType": "uint256",
          "name": "tokenId",
          "type": "uint256"
        }
      ],
      "name": "Approval",
      "type": "event"
    },
    {
      "anonymous": false,
      "inputs": [
        {
          "indexed": true,
          "internalType": "address",
          "name": "owner",
          "type": "address"
        },
        {
          "indexed": true,
          "internalType": "address",
          "name": "operator",
          "type": "address"
        },
        {
          "indexed": false,
          "internalType": "bool",
          "name": "approved",
          "type": "bool"
        }
      ],
      "name": "ApprovalForAll",
      "type": "event"
    },
    {
      "anonymous": false,
      "inputs": [
        {
          "indexed": false,
          "internalType": "uint256",
          "name": "id",
          "type": "uint256"
        },
        {
          "indexed": false,
          "internalType": "string",
          "name": "name",
          "type": "string"
        },
        {
          "indexed": false,
          "internalType": "string",
          "name": "description",
          "type": "string"
        },
        {
          "indexed": false,
          "internalType": "string",
          "name": "image",
          "type": "string"
        },
        {
          "indexed": false,
          "internalType": "uint256",
          "name": "price",
          "type": "uint256"
        }
      ],
      "name": "NewFlyer",
      "type": "event"
    },
    {
      "anonymous": false,
      "inputs": [
        {
          "indexed": true,
          "internalType": "address",
          "name": "previousOwner",
          "type": "address"
        },
        {
          "indexed": true,
          "internalType": "address",
          "name": "newOwner",
          "type": "address"
        }
      ],
      "name": "OwnershipTransferred",
      "type": "event"
    },
    {
      "anonymous": false,
      "inputs": [
        {
          "indexed": true,
          "internalType": "address",
          "name": "from",
          "type": "address"
        },
        {
          "indexed": true,
          "internalType": "address",
          "name": "to",
          "type": "address"
        },
        {
          "indexed": true,
          "internalType": "uint256",
          "name": "tokenId",
          "type": "uint256"
        }
      ],
      "name": "Transfer",
      "type": "event"
    },
    {
      "inputs": [
        {
          "internalType": "string",
          "name": "_name",
          "type": "string"
        },
        {
          "internalType": "string",
          "name": "_description",
          "type": "string"
        },
        {
          "internalType": "string",
          "name": "_image",
          "type": "string"
        },
        {
          "internalType": "uint256",
          "name": "_price",
          "type": "uint256"
        }
      ],
      "name": "createFlyer",
      "outputs": [],
      "stateMutability": "nonpayable",
      "type": "function"
    },
    {
      "inputs": [
        {
          "internalType": "uint256",
          "name": "",
          "type": "uint256"
        }
      ],
      "name": "flyerToOwner",
      "outputs": [
        {
          "internalType": "address",
          "name": "",
          "type": "address"
        }
      ],
      "stateMutability": "view",
      "type": "function"
    },
    {
      "inputs": [
        {
          "internalType": "uint256",
          "name": "",
          "type": "uint256"
        }
      ],
      "name": "flyers",
      "outputs": [
        {
          "internalType": "string",
          "name": "name",
          "type": "string"
        },
        {
          "internalType": "string",
          "name": "description",
          "type": "string"
        },
        {
          "internalType": "string",
          "name": "image",
          "type": "string"
        },
        {
          "internalType": "uint256",
          "name": "price",
          "type": "uint256"
        },
        {
          "internalType": "bool",
          "name": "status",
          "type": "bool"
        }
      ],
      "stateMutability": "view",
      "type": "function"
    },
    {
      "inputs": [
        {
          "internalType": "uint256",
          "name": "tokenId",
          "type": "uint256"
        }
      ],
      "name": "getApproved",
      "outputs": [
        {
          "internalType": "address",
          "name": "",
          "type": "address"
        }
      ],
      "stateMutability": "view",
      "type": "function"
    },
    {
      "inputs": [
        {
          "internalType": "address",
          "name": "owner",
          "type": "address"
        },
        {
          "internalType": "address",
          "name": "operator",
          "type": "address"
        }
      ],
      "name": "isApprovedForAll",
      "outputs": [
        {
          "internalType": "bool",
          "name": "",
          "type": "bool"
        }
      ],
      "stateMutability": "view",
      "type": "function"
    },
    {
      "inputs": [],
      "name": "name",
      "outputs": [
        {
          "internalType": "string",
          "name": "",
          "type": "string"
        }
      ],
      "stateMutability": "view",
      "type": "function"
    },
    {
      "inputs": [],
      "name": "owner",
      "outputs": [
        {
          "internalType": "address",
          "name": "",
          "type": "address"
        }
      ],
      "stateMutability": "view",
      "type": "function"
    },
    {
      "inputs": [
        {
          "internalType": "address",
          "name": "",
          "type": "address"
        }
      ],
      "name": "ownerFlyerCount",
      "outputs": [
        {
          "internalType": "uint256",
          "name": "",
          "type": "uint256"
        }
      ],
      "stateMutability": "view",
      "type": "function"
    },
    {
      "inputs": [],
      "name": "renounceOwnership",
      "outputs": [],
      "stateMutability": "nonpayable",
      "type": "function"
    },
    {
      "inputs": [
        {
          "internalType": "address",
          "name": "from",
          "type": "address"
        },
        {
          "internalType": "address",
          "name": "to",
          "type": "address"
        },
        {
          "internalType": "uint256",
          "name": "tokenId",
          "type": "uint256"
        }
      ],
      "name": "safeTransferFrom",
      "outputs": [],
      "stateMutability": "nonpayable",
      "type": "function"
    },
    {
      "inputs": [
        {
          "internalType": "address",
          "name": "from",
          "type": "address"
        },
        {
          "internalType": "address",
          "name": "to",
          "type": "address"
        },
        {
          "internalType": "uint256",
          "name": "tokenId",
          "type": "uint256"
        },
        {
          "internalType": "bytes",
          "name": "_data",
          "type": "bytes"
        }
      ],
      "name": "safeTransferFrom",
      "outputs": [],
      "stateMutability": "nonpayable",
      "type": "function"
    },
    {
      "inputs": [
        {
          "internalType": "address",
          "name": "operator",
          "type": "address"
        },
        {
          "internalType": "bool",
          "name": "approved",
          "type": "bool"
        }
      ],
      "name": "setApprovalForAll",
      "outputs": [],
      "stateMutability": "nonpayable",
      "type": "function"
    },
    {
      "inputs": [
        {
          "internalType": "bytes4",
          "name": "interfaceId",
          "type": "bytes4"
        }
      ],
      "name": "supportsInterface",
      "outputs": [
        {
          "internalType": "bool",
          "name": "",
          "type": "bool"
        }
      ],
      "stateMutability": "view",
      "type": "function"
    },
    {
      "inputs": [],
      "name": "symbol",
      "outputs": [
        {
          "internalType": "string",
          "name": "",
          "type": "string"
        }
      ],
      "stateMutability": "view",
      "type": "function"
    },
    {
      "inputs": [
        {
          "internalType": "uint256",
          "name": "tokenId",
          "type": "uint256"
        }
      ],
      "name": "tokenURI",
      "outputs": [
        {
          "internalType": "string",
          "name": "",
          "type": "string"
        }
      ],
      "stateMutability": "view",
      "type": "function"
    },
    {
      "inputs": [
        {
          "internalType": "address",
          "name": "newOwner",
          "type": "address"
        }
      ],
      "name": "transferOwnership",
      "outputs": [],
      "stateMutability": "nonpayable",
      "type": "function"
    },
    {
      "inputs": [
        {
          "internalType": "address",
          "name": "_owner",
          "type": "address"
        }
      ],
      "name": "balanceOf",
      "outputs": [
        {
          "internalType": "uint256",
          "name": "",
          "type": "uint256"
        }
      ],
      "stateMutability": "view",
      "type": "function"
    },
    {
      "inputs": [
        {
          "internalType": "uint256",
          "name": "_tokenId",
          "type": "uint256"
        }
      ],
      "name": "ownerOf",
      "outputs": [
        {
          "internalType": "address",
          "name": "",
          "type": "address"
        }
      ],
      "stateMutability": "view",
      "type": "function"
    },
    {
      "inputs": [
        {
          "internalType": "uint256",
          "name": "_tokenId",
          "type": "uint256"
        }
      ],
      "name": "getPrice",
      "outputs": [
        {
          "internalType": "uint256",
          "name": "",
          "type": "uint256"
        }
      ],
      "stateMutability": "view",
      "type": "function"
    },
    {
      "inputs": [
        {
          "internalType": "uint256",
          "name": "_tokenId",
          "type": "uint256"
        }
      ],
      "name": "getStatus",
      "outputs": [
        {
          "internalType": "bool",
          "name": "",
          "type": "bool"
        }
      ],
      "stateMutability": "view",
      "type": "function"
    },
    {
      "inputs": [
        {
          "internalType": "address",
          "name": "to",
          "type": "address"
        },
        {
          "internalType": "uint256",
          "name": "tokenId",
          "type": "uint256"
        }
      ],
      "name": "approve",
      "outputs": [],
      "stateMutability": "nonpayable",
      "type": "function"
    },
    {
      "inputs": [
        {
          "internalType": "uint256",
          "name": "_tokenId",
          "type": "uint256"
        },
        {
          "internalType": "uint256",
          "name": "_price",
          "type": "uint256"
        }
      ],
      "name": "setPrice",
      "outputs": [],
      "stateMutability": "nonpayable",
      "type": "function"
    },
    {
      "inputs": [
        {
          "internalType": "address",
          "name": "_from",
          "type": "address"
        },
        {
          "internalType": "address",
          "name": "_to",
          "type": "address"
        },
        {
          "internalType": "uint256",
          "name": "_tokenId",
          "type": "uint256"
        }
      ],
      "name": "marketSend",
      "outputs": [],
      "stateMutability": "nonpayable",
      "type": "function"
    },
    {
      "inputs": [
        {
          "internalType": "address",
          "name": "_marketAddress",
          "type": "address"
        },
        {
          "internalType": "bool",
          "name": "state",
          "type": "bool"
        }
      ],
      "name": "manageMarket",
      "outputs": [],
      "stateMutability": "nonpayable",
      "type": "function"
    },
    {
      "inputs": [
        {
          "internalType": "uint256",
          "name": "_id",
          "type": "uint256"
        }
      ],
      "name": "closeSale",
      "outputs": [],
      "stateMutability": "nonpayable",
      "type": "function"
    },
    {
      "inputs": [
        {
          "internalType": "uint256",
          "name": "_id",
          "type": "uint256"
        }
      ],
      "name": "changeSaleStatus",
      "outputs": [],
      "stateMutability": "nonpayable",
      "type": "function"
    },
    {
      "inputs": [
        {
          "internalType": "address",
          "name": "_from",
          "type": "address"
        },
        {
          "internalType": "address",
          "name": "_to",
          "type": "address"
        },
        {
          "internalType": "uint256",
          "name": "_tokenId",
          "type": "uint256"
        }
      ],
      "name": "transferFrom",
      "outputs": [],
      "stateMutability": "nonpayable",
      "type": "function"
    }
  ],
  "bytecode": "0x6080604052600a80546001600160a01b031916301790553480156200002357600080fd5b50604051806040016040528060088152602001674465466c7965727360c01b8152506040518060400160405280600481526020016344464c5960e01b8152506200007c62000076620000b060201b60201c565b620000b4565b81516200009190600490602085019062000104565b508051620000a790600590602084019062000104565b505050620001e6565b3390565b600080546001600160a01b038381166001600160a01b0319831681178455604051919092169283917f8be0079c531659141344cd1fd0a4f28419497f9722a3daafe3b4186f6b6457e09190a35050565b8280546200011290620001aa565b90600052602060002090601f01602090048101928262000136576000855562000181565b82601f106200015157805160ff191683800117855562000181565b8280016001018555821562000181579182015b828111156200018157825182559160200191906001019062000164565b506200018f92915062000193565b5090565b5b808211156200018f576000815560010162000194565b600181811c90821680620001bf57607f821691505b602082108103620001e057634e487b7160e01b600052602260045260246000fd5b50919050565b611e7180620001f66000396000f3fe608060405234801561001057600080fd5b50600436106101a95760003560e01c80638da5cb5b116100f9578063c87b56dd11610097578063e985e9c511610071578063e985e9c5146103ea578063f2fde38b14610426578063f7d9757714610439578063fff5ae4e1461044c57600080fd5b8063c87b56dd146103b1578063d328c4f3146103c4578063e7572230146103d757600080fd5b8063a4223d53116100d3578063a4223d5314610358578063a6cf8b0d1461036b578063b88d4fde1461038b578063b91a56a11461039e57600080fd5b80638da5cb5b1461032c57806395d89b411461033d578063a22cb4651461034557600080fd5b806342842e0e116101665780635c622a0e116101405780635c622a0e146102b15780636352211e146102c457806370a08231146102ed578063715018a61461032457600080fd5b806342842e0e14610262578063443b09e8146102755780634710ca861461029e57600080fd5b806301ffc9a7146101ae57806306fdde03146101d6578063081812fc146101eb578063095ea7b31461021657806309d945be1461022b57806323b872dd1461024f575b600080fd5b6101c16101bc3660046117fc565b61045f565b60405190151581526020015b60405180910390f35b6101de6104b1565b6040516101cd9190611871565b6101fe6101f9366004611884565b610543565b6040516001600160a01b0390911681526020016101cd565b6102296102243660046118b9565b6105dd565b005b61023e610239366004611884565b61064f565b6040516101cd9594939291906118e3565b61022961025d366004611936565b610831565b610229610270366004611936565b61095c565b6101fe610283366004611884565b6002602052600090815260409020546001600160a01b031681565b6102296102ac366004611884565b61097c565b6101c16102bf366004611884565b610a74565b6101fe6102d2366004611884565b6000908152600260205260409020546001600160a01b031690565b6103166102fb366004611972565b6001600160a01b031660009081526003602052604090205490565b6040519081526020016101cd565b610229610aa6565b6000546001600160a01b03166101fe565b6101de610adc565b61022961035336600461198d565b610aeb565b610229610366366004611884565b610afa565b610316610379366004611972565b60036020526000908152604090205481565b610229610399366004611a55565b610b77565b6102296103ac36600461198d565b610bf9565b6101de6103bf366004611884565b610c4e565b6102296103d2366004611af1565b610d36565b6103166103e5366004611884565b610ea0565b6101c16103f8366004611b81565b6001600160a01b03918216600090815260096020908152604080832093909416825291909152205460ff1690565b610229610434366004611972565b610ece565b610229610447366004611bb4565b610f66565b61022961045a366004611936565b610fb9565b60006001600160e01b031982166380ac58cd60e01b148061049057506001600160e01b03198216635b5e139f60e01b145b806104ab57506301ffc9a760e01b6001600160e01b03198316145b92915050565b6060600480546104c090611bd6565b80601f01602080910402602001604051908101604052809291908181526020018280546104ec90611bd6565b80156105395780601f1061050e57610100808354040283529160200191610539565b820191906000526020600020905b81548152906001019060200180831161051c57829003601f168201915b5050505050905090565b6000818152600660205260408120546001600160a01b03166105c15760405162461bcd60e51b815260206004820152602c60248201527f4552433732313a20617070726f76656420717565727920666f72206e6f6e657860448201526b34b9ba32b73a103a37b5b2b760a11b60648201526084015b60405180910390fd5b506000908152600860205260409020546001600160a01b031690565b6000818152600b60205260409020546001600160a01b031633148061061857506000818152600260205260409020546001600160a01b031633145b61062157600080fd5b6000908152600b6020526040902080546001600160a01b0319166001600160a01b0392909216919091179055565b6001818154811061065f57600080fd5b906000526020600020906005020160009150905080600001805461068290611bd6565b80601f01602080910402602001604051908101604052809291908181526020018280546106ae90611bd6565b80156106fb5780601f106106d0576101008083540402835291602001916106fb565b820191906000526020600020905b8154815290600101906020018083116106de57829003601f168201915b50505050509080600101805461071090611bd6565b80601f016020809104026020016040519081016040528092919081815260200182805461073c90611bd6565b80156107895780601f1061075e57610100808354040283529160200191610789565b820191906000526020600020905b81548152906001019060200180831161076c57829003601f168201915b50505050509080600201805461079e90611bd6565b80601f01602080910402602001604051908101604052809291908181526020018280546107ca90611bd6565b80156108175780601f106107ec57610100808354040283529160200191610817565b820191906000526020600020905b8154815290600101906020018083116107fa57829003601f168201915b50505050600383015460049093015491929160ff16905085565b6001600160a01b03821661084457600080fd5b6000818152600260205260409020546001600160a01b031633148061087f57506000818152600b60205260409020546001600160a01b031633145b61088857600080fd5b6000818152600260205260409020546001600160a01b038481169116146108ae57600080fd5b6001600160a01b03831660009081526003602052604081208054916108d283611c26565b90915550506001600160a01b03821660009081526003602052604081208054916108fb83611c3d565b909155505060008181526002602052604080822080546001600160a01b0319166001600160a01b0386811691821790925591518493918716917fddf252ad1be2c89b69c2b068fc378daa952ba7f163c4a11628f55a4df523b3ef91a4505050565b61097783838360405180602001604052806000815250610b77565b505050565b6000818152600260205260409020546001600160a01b03163314806109b757506000818152600b60205260409020546001600160a01b031633145b6109c057600080fd5b600181815481106109d3576109d3611c56565b600091825260209091206004600590920201015460ff1615610a3457600060018281548110610a0457610a04611c56565b60009182526020822060059190910201600401805460ff191692151592909217909155610a3190826105dd565b50565b6001808281548110610a4857610a48611c56565b60009182526020909120600590910201600401805460ff1916911515919091179055610a3130826105dd565b600060018281548110610a8957610a89611c56565b600091825260209091206004600590920201015460ff1692915050565b6000546001600160a01b03163314610ad05760405162461bcd60e51b81526004016105b890611c6c565b610ada6000611082565b565b6060600580546104c090611bd6565b610af63383836110d2565b5050565b336000908152600c602052604090205460ff16610b1657600080fd5b600a54604051632388654360e11b8152600481018390526001600160a01b0390911690634710ca8690602401600060405180830381600087803b158015610b5c57600080fd5b505af1158015610b70573d6000803e3d6000fd5b5050505050565b610b8133836111a0565b610be75760405162461bcd60e51b815260206004820152603160248201527f4552433732313a207472616e736665722063616c6c6572206973206e6f74206f6044820152701ddb995c881b9bdc88185c1c1c9bdd9959607a1b60648201526084016105b8565b610bf384848484611297565b50505050565b6000546001600160a01b03163314610c235760405162461bcd60e51b81526004016105b890611c6c565b6001600160a01b03919091166000908152600c60205260409020805460ff1916911515919091179055565b6000818152600660205260409020546060906001600160a01b0316610ccd5760405162461bcd60e51b815260206004820152602f60248201527f4552433732314d657461646174613a2055524920717565727920666f72206e6f60448201526e3732bc34b9ba32b73a103a37b5b2b760891b60648201526084016105b8565b6000610ce460408051602081019091526000815290565b90506000815111610d045760405180602001604052806000815250610d2f565b80610d0e846112ca565b604051602001610d1f929190611ca1565b6040516020818303038152906040525b9392505050565b6040805160a081018252858152602080820186905291810184905260608101839052600060808201819052600180548082018255915281518051929360059092027fb10e2d527612073b26eecdfd717e6a320cf44b4afac2b0732d9fcbe2b7fa0cf60192610da7928492019061174d565b506020828101518051610dc0926001850192019061174d565b5060408201518051610ddc91600284019160209091019061174d565b50606082015160038201556080909101516004909101805460ff191691151591909117905560018054600091610e1191611cd0565b600081815260026020908152604080832080546001600160a01b031916339081179091558352600390915281208054929350600192909190610e54908490611ce7565b90915550506040517f103d8a0318863f4409aa9cd3ba0a3cd74b5d2becba34d0fbd6e3320f6c18d47890610e919083908890889088908890611cff565b60405180910390a15050505050565b600060018281548110610eb557610eb5611c56565b9060005260206000209060050201600301549050919050565b6000546001600160a01b03163314610ef85760405162461bcd60e51b81526004016105b890611c6c565b6001600160a01b038116610f5d5760405162461bcd60e51b815260206004820152602660248201527f4f776e61626c653a206e6577206f776e657220697320746865207a65726f206160448201526564647265737360d01b60648201526084016105b8565b610a3181611082565b60008281526002602052604090205482906001600160a01b03163314610f8b57600080fd5b8160018481548110610f9f57610f9f611c56565b906000526020600020906005020160030181905550505050565b336000908152600c602052604090205460ff16610fd557600080fd5b8060018181548110610fe957610fe9611c56565b600091825260209091206004600590920201015460ff16151560011461100e57600080fd5b600a546040516323b872dd60e01b81526001600160a01b038681166004830152858116602483015260448201859052909116906323b872dd90606401600060405180830381600087803b15801561106457600080fd5b505af1158015611078573d6000803e3d6000fd5b5050505050505050565b600080546001600160a01b038381166001600160a01b0319831681178455604051919092169283917f8be0079c531659141344cd1fd0a4f28419497f9722a3daafe3b4186f6b6457e09190a35050565b816001600160a01b0316836001600160a01b0316036111335760405162461bcd60e51b815260206004820152601960248201527f4552433732313a20617070726f766520746f2063616c6c65720000000000000060448201526064016105b8565b6001600160a01b03838116600081815260096020908152604080832094871680845294825291829020805460ff191686151590811790915591519182527f17307eab39ab6107e8899845ad3d59bd9653f200f220920489ca2b5937696c31910160405180910390a3505050565b6000818152600660205260408120546001600160a01b03166112195760405162461bcd60e51b815260206004820152602c60248201527f4552433732313a206f70657261746f7220717565727920666f72206e6f6e657860448201526b34b9ba32b73a103a37b5b2b760a11b60648201526084016105b8565b6000611224836113cb565b9050806001600160a01b0316846001600160a01b0316148061125f5750836001600160a01b031661125484610543565b6001600160a01b0316145b8061128f57506001600160a01b0380821660009081526009602090815260408083209388168352929052205460ff165b949350505050565b6112a2848484611442565b6112ae848484846115de565b610bf35760405162461bcd60e51b81526004016105b890611d51565b6060816000036112f15750506040805180820190915260018152600360fc1b602082015290565b8160005b811561131b578061130581611c3d565b91506113149050600a83611db9565b91506112f5565b60008167ffffffffffffffff811115611336576113366119c9565b6040519080825280601f01601f191660200182016040528015611360576020820181803683370190505b5090505b841561128f57611375600183611cd0565b9150611382600a86611dcd565b61138d906030611ce7565b60f81b8183815181106113a2576113a2611c56565b60200101906001600160f81b031916908160001a9053506113c4600a86611db9565b9450611364565b6000818152600660205260408120546001600160a01b0316806104ab5760405162461bcd60e51b815260206004820152602960248201527f4552433732313a206f776e657220717565727920666f72206e6f6e657869737460448201526832b73a103a37b5b2b760b91b60648201526084016105b8565b826001600160a01b0316611455826113cb565b6001600160a01b0316146114b95760405162461bcd60e51b815260206004820152602560248201527f4552433732313a207472616e736665722066726f6d20696e636f72726563742060448201526437bbb732b960d91b60648201526084016105b8565b6001600160a01b03821661151b5760405162461bcd60e51b8152602060048201526024808201527f4552433732313a207472616e7366657220746f20746865207a65726f206164646044820152637265737360e01b60648201526084016105b8565b6115266000826116df565b6001600160a01b038316600090815260076020526040812080546001929061154f908490611cd0565b90915550506001600160a01b038216600090815260076020526040812080546001929061157d908490611ce7565b909155505060008181526006602052604080822080546001600160a01b0319166001600160a01b0386811691821790925591518493918716917fddf252ad1be2c89b69c2b068fc378daa952ba7f163c4a11628f55a4df523b3ef91a4505050565b60006001600160a01b0384163b156116d457604051630a85bd0160e11b81526001600160a01b0385169063150b7a0290611622903390899088908890600401611de1565b6020604051808303816000875af192505050801561165d575060408051601f3d908101601f1916820190925261165a91810190611e1e565b60015b6116ba573d80801561168b576040519150601f19603f3d011682016040523d82523d6000602084013e611690565b606091505b5080516000036116b25760405162461bcd60e51b81526004016105b890611d51565b805181602001fd5b6001600160e01b031916630a85bd0160e11b14905061128f565b506001949350505050565b600081815260086020526040902080546001600160a01b0319166001600160a01b0384169081179091558190611714826113cb565b6001600160a01b03167f8c5be1e5ebec7d5bd14f71427d1e84f3dd0314c0f7b2291e5b200ac8c7c3b92560405160405180910390a45050565b82805461175990611bd6565b90600052602060002090601f01602090048101928261177b57600085556117c1565b82601f1061179457805160ff19168380011785556117c1565b828001600101855582156117c1579182015b828111156117c15782518255916020019190600101906117a6565b506117cd9291506117d1565b5090565b5b808211156117cd57600081556001016117d2565b6001600160e01b031981168114610a3157600080fd5b60006020828403121561180e57600080fd5b8135610d2f816117e6565b60005b8381101561183457818101518382015260200161181c565b83811115610bf35750506000910152565b6000815180845261185d816020860160208601611819565b601f01601f19169290920160200192915050565b602081526000610d2f6020830184611845565b60006020828403121561189657600080fd5b5035919050565b80356001600160a01b03811681146118b457600080fd5b919050565b600080604083850312156118cc57600080fd5b6118d58361189d565b946020939093013593505050565b60a0815260006118f660a0830188611845565b82810360208401526119088188611845565b9050828103604084015261191c8187611845565b606084019590955250509015156080909101529392505050565b60008060006060848603121561194b57600080fd5b6119548461189d565b92506119626020850161189d565b9150604084013590509250925092565b60006020828403121561198457600080fd5b610d2f8261189d565b600080604083850312156119a057600080fd5b6119a98361189d565b9150602083013580151581146119be57600080fd5b809150509250929050565b634e487b7160e01b600052604160045260246000fd5b600067ffffffffffffffff808411156119fa576119fa6119c9565b604051601f8501601f19908116603f01168101908282118183101715611a2257611a226119c9565b81604052809350858152868686011115611a3b57600080fd5b858560208301376000602087830101525050509392505050565b60008060008060808587031215611a6b57600080fd5b611a748561189d565b9350611a826020860161189d565b925060408501359150606085013567ffffffffffffffff811115611aa557600080fd5b8501601f81018713611ab657600080fd5b611ac5878235602084016119df565b91505092959194509250565b600082601f830112611ae257600080fd5b610d2f838335602085016119df565b60008060008060808587031215611b0757600080fd5b843567ffffffffffffffff80821115611b1f57600080fd5b611b2b88838901611ad1565b95506020870135915080821115611b4157600080fd5b611b4d88838901611ad1565b94506040870135915080821115611b6357600080fd5b50611b7087828801611ad1565b949793965093946060013593505050565b60008060408385031215611b9457600080fd5b611b9d8361189d565b9150611bab6020840161189d565b90509250929050565b60008060408385031215611bc757600080fd5b50508035926020909101359150565b600181811c90821680611bea57607f821691505b602082108103611c0a57634e487b7160e01b600052602260045260246000fd5b50919050565b634e487b7160e01b600052601160045260246000fd5b600081611c3557611c35611c10565b506000190190565b600060018201611c4f57611c4f611c10565b5060010190565b634e487b7160e01b600052603260045260246000fd5b6020808252818101527f4f776e61626c653a2063616c6c6572206973206e6f7420746865206f776e6572604082015260600190565b60008351611cb3818460208801611819565b835190830190611cc7818360208801611819565b01949350505050565b600082821015611ce257611ce2611c10565b500390565b60008219821115611cfa57611cfa611c10565b500190565b85815260a060208201526000611d1860a0830187611845565b8281036040840152611d2a8187611845565b90508281036060840152611d3e8186611845565b9150508260808301529695505050505050565b60208082526032908201527f4552433732313a207472616e7366657220746f206e6f6e20455243373231526560408201527131b2b4bb32b91034b6b83632b6b2b73a32b960711b606082015260800190565b634e487b7160e01b600052601260045260246000fd5b600082611dc857611dc8611da3565b500490565b600082611ddc57611ddc611da3565b500690565b6001600160a01b0385811682528416602082015260408101839052608060608201819052600090611e1490830184611845565b9695505050505050565b600060208284031215611e3057600080fd5b8151610d2f816117e656fea2646970667358221220ecd5afdfe9e52de6d4fd92e84e3f2168cc68e167ccd3b81c13f72e360e75ab7d64736f6c634300080d0033",
  "immutableReferences": {},
  "source": "// SPDX-License-Identifier: MIT\npragma solidity ^0.8;\nimport \"@openzeppelin/contracts/token/ERC721/ERC721.sol\";\nimport \"./flyerfactory.sol\";\nimport \"@openzeppelin/contracts/token/ERC721/IERC721.sol\";\nimport \"./IFlyerOwnership.sol\";\n\ncontract FlyerOwnership is FlyerFactory, ERC721 {\n    IFlyerOwnership thisContract = IFlyerOwnership(address(this));\n\n    modifier onlyOwnerOf(uint _id) {\n        require(flyerToOwner[_id] == msg.sender );\n        _;\n    }\n\n\n    modifier canBuy(uint _id) {\n        require(flyers[_id].status == true);\n        _;\n    }\n\n\n    mapping (uint => address) flyerApproval;\n    mapping (address => bool) approvedMarket;\n\n    modifier validMarket(){\n        require(approvedMarket[msg.sender]);\n        _;\n    }\n\n    constructor() ERC721(\"DeFlyers\",\"DFLY\") {\n    }\n    \n    function balanceOf(address _owner) public view virtual override returns (uint256){\n        return ownerFlyerCount[_owner];\n    }\n    function ownerOf(uint256 _tokenId) public view virtual override returns (address){\n        return flyerToOwner[_tokenId];\n    }\n\n    function getPrice(uint256 _tokenId) external view returns (uint){\n        return flyers[_tokenId].price;\n    }\n    \n    function getStatus(uint256 _tokenId) external view returns (bool){\n        return flyers[_tokenId].status;\n    }\n\n\n    function approve(address to, uint256 tokenId) public virtual override {\n        require(flyerApproval[tokenId] == msg.sender || msg.sender == ownerOf(tokenId));\n        flyerApproval[tokenId] = to;\n    }\n\n    function setPrice(uint _tokenId, uint _price) external onlyOwnerOf(_tokenId){\n        flyers[_tokenId].price = _price;\n    }\n\n\n    function marketSend(address _from,address _to,uint256 _tokenId) public validMarket() canBuy(_tokenId){\n        thisContract.transferFrom(_from,_to,_tokenId);\n    }\n\n    function manageMarket(address _marketAddress, bool state) external onlyOwner(){\n        approvedMarket[_marketAddress] = state;\n    }\n\n    // This contract is approved only if the status of the sale is true\n    function closeSale(uint _id) public validMarket(){\n        thisContract.changeSaleStatus(_id);\n    }\n\n    // Change the status of your flyer => if true someone can buy it\n    function changeSaleStatus(uint _id) public {\n        require(ownerOf(_id) == msg.sender || msg.sender == flyerApproval[_id]);\n        if(flyers[_id].status){\n            flyers[_id].status = false;\n            // Only the owner can transfer now\n            approve(address(0),_id);\n        }\n        else{\n            flyers[_id].status = true;\n            // The contract can transfer\n            approve(address(this),_id);\n        }\n    }\n\n    function transferFrom(address _from, address _to, uint256 _tokenId) public override {\n        require(_to != address(0));\n        require(msg.sender == flyerToOwner[_tokenId] || msg.sender == flyerApproval[_tokenId]);\n        require(_from == flyerToOwner[_tokenId]);\n        ownerFlyerCount[_from]--;\n        ownerFlyerCount[_to]++;\n        flyerToOwner[_tokenId] = _to;\n        emit Transfer(_from,_to,_tokenId);\n    }\n\n\n    \n}\n",
  "sourcePath": "/home/roman/Projets/WEB3/DeFlyers/contracts/flyerownership.sol",
  "compiler": {
    "name": "solc",
    "version": "0.8.13+commit.abaa5c0e.Emscripten.clang"
  },
  "schemaVersion": "3.4.6",
  "updatedAt": "2022-04-13T15:30:02.632Z",
  "devdoc": {
    "kind": "dev",
    "methods": {
      "approve(address,uint256)": {
        "details": "See {IERC721-approve}."
      },
      "getApproved(uint256)": {
        "details": "See {IERC721-getApproved}."
      },
      "isApprovedForAll(address,address)": {
        "details": "See {IERC721-isApprovedForAll}."
      },
      "name()": {
        "details": "See {IERC721Metadata-name}."
      },
      "owner()": {
        "details": "Returns the address of the current owner."
      },
      "renounceOwnership()": {
        "details": "Leaves the contract without owner. It will not be possible to call `onlyOwner` functions anymore. Can only be called by the current owner. NOTE: Renouncing ownership will leave the contract without an owner, thereby removing any functionality that is only available to the owner."
      },
      "safeTransferFrom(address,address,uint256)": {
        "details": "See {IERC721-safeTransferFrom}."
      },
      "safeTransferFrom(address,address,uint256,bytes)": {
        "details": "See {IERC721-safeTransferFrom}."
      },
      "setApprovalForAll(address,bool)": {
        "details": "See {IERC721-setApprovalForAll}."
      },
      "supportsInterface(bytes4)": {
        "details": "See {IERC165-supportsInterface}."
      },
      "symbol()": {
        "details": "See {IERC721Metadata-symbol}."
      },
      "tokenURI(uint256)": {
        "details": "See {IERC721Metadata-tokenURI}."
      },
      "transferOwnership(address)": {
        "details": "Transfers ownership of the contract to a new account (`newOwner`). Can only be called by the current owner."
      }
    },
    "version": 1
  },
  "userdoc": {
    "kind": "user",
    "methods": {},
    "version": 1
  }
}