{
  "contractName": "FlyerFactory",
  "abi": [
    {
      "anonymous": false,
      "inputs": [
        {
          "indexed": false,
          "internalType": "uint256",
          "name": "id",
          "type": "uint256"
        },
        {
          "indexed": false,
          "internalType": "string",
          "name": "name",
          "type": "string"
        },
        {
          "indexed": false,
          "internalType": "string",
          "name": "description",
          "type": "string"
        },
        {
          "indexed": false,
          "internalType": "string",
          "name": "image",
          "type": "string"
        },
        {
          "indexed": false,
          "internalType": "uint256",
          "name": "price",
          "type": "uint256"
        },
        {
          "indexed": false,
          "internalType": "bool",
          "name": "status",
          "type": "bool"
        }
      ],
      "name": "NewFlyer",
      "type": "event"
    },
    {
      "anonymous": false,
      "inputs": [
        {
          "indexed": true,
          "internalType": "address",
          "name": "previousOwner",
          "type": "address"
        },
        {
          "indexed": true,
          "internalType": "address",
          "name": "newOwner",
          "type": "address"
        }
      ],
      "name": "OwnershipTransferred",
      "type": "event"
    },
    {
      "inputs": [
        {
          "internalType": "uint256",
          "name": "",
          "type": "uint256"
        }
      ],
      "name": "flyerToOwner",
      "outputs": [
        {
          "internalType": "address",
          "name": "",
          "type": "address"
        }
      ],
      "stateMutability": "view",
      "type": "function"
    },
    {
      "inputs": [
        {
          "internalType": "uint256",
          "name": "",
          "type": "uint256"
        }
      ],
      "name": "flyers",
      "outputs": [
        {
          "internalType": "string",
          "name": "name",
          "type": "string"
        },
        {
          "internalType": "string",
          "name": "description",
          "type": "string"
        },
        {
          "internalType": "string",
          "name": "image",
          "type": "string"
        },
        {
          "internalType": "uint256",
          "name": "price",
          "type": "uint256"
        },
        {
          "internalType": "bool",
          "name": "status",
          "type": "bool"
        }
      ],
      "stateMutability": "view",
      "type": "function"
    },
    {
      "inputs": [],
      "name": "owner",
      "outputs": [
        {
          "internalType": "address",
          "name": "",
          "type": "address"
        }
      ],
      "stateMutability": "view",
      "type": "function"
    },
    {
      "inputs": [
        {
          "internalType": "address",
          "name": "",
          "type": "address"
        }
      ],
      "name": "ownerFlyerCount",
      "outputs": [
        {
          "internalType": "uint256",
          "name": "",
          "type": "uint256"
        }
      ],
      "stateMutability": "view",
      "type": "function"
    },
    {
      "inputs": [],
      "name": "renounceOwnership",
      "outputs": [],
      "stateMutability": "nonpayable",
      "type": "function"
    },
    {
      "inputs": [
        {
          "internalType": "address",
          "name": "newOwner",
          "type": "address"
        }
      ],
      "name": "transferOwnership",
      "outputs": [],
      "stateMutability": "nonpayable",
      "type": "function"
    },
    {
      "inputs": [
        {
          "internalType": "string",
          "name": "_name",
          "type": "string"
        },
        {
          "internalType": "string",
          "name": "_description",
          "type": "string"
        },
        {
          "internalType": "string",
          "name": "_image",
          "type": "string"
        },
        {
          "internalType": "uint256",
          "name": "_price",
          "type": "uint256"
        },
        {
          "internalType": "bool",
          "name": "_status",
          "type": "bool"
        }
      ],
      "name": "createFlyer",
      "outputs": [],
      "stateMutability": "nonpayable",
      "type": "function"
    }
  ],
  "bytecode": "0x608060405234801561001057600080fd5b5061001a3361001f565b61006f565b600080546001600160a01b038381166001600160a01b0319831681178455604051919092169283917f8be0079c531659141344cd1fd0a4f28419497f9722a3daafe3b4186f6b6457e09190a35050565b610a178061007e6000396000f3fe608060405234801561001057600080fd5b506004361061007d5760003560e01c8063715018a61161005b578063715018a6146101055780638da5cb5b1461010d578063a6cf8b0d1461011e578063f2fde38b1461014c57600080fd5b806309d945be146100825780633d729a36146100af578063443b09e8146100c4575b600080fd5b6100956100903660046106d0565b61015f565b6040516100a6959493929190610736565b60405180910390f35b6100c26100bd36600461082c565b610341565b005b6100ed6100d23660046106d0565b6002602052600090815260409020546001600160a01b031681565b6040516001600160a01b0390911681526020016100a6565b6100c26104b1565b6000546001600160a01b03166100ed565b61013e61012c3660046108d8565b60036020526000908152604090205481565b6040519081526020016100a6565b6100c261015a3660046108d8565b61051c565b6001818154811061016f57600080fd5b906000526020600020906005020160009150905080600001805461019290610908565b80601f01602080910402602001604051908101604052809291908181526020018280546101be90610908565b801561020b5780601f106101e05761010080835404028352916020019161020b565b820191906000526020600020905b8154815290600101906020018083116101ee57829003601f168201915b50505050509080600101805461022090610908565b80601f016020809104026020016040519081016040528092919081815260200182805461024c90610908565b80156102995780601f1061026e57610100808354040283529160200191610299565b820191906000526020600020905b81548152906001019060200180831161027c57829003601f168201915b5050505050908060020180546102ae90610908565b80601f01602080910402602001604051908101604052809291908181526020018280546102da90610908565b80156103275780601f106102fc57610100808354040283529160200191610327565b820191906000526020600020905b81548152906001019060200180831161030a57829003601f168201915b50505050600383015460049093015491929160ff16905085565b6040805160a081018252868152602080820187905291810185905260608101849052821515608082015260018054808201825560009190915281518051929360059092027fb10e2d527612073b26eecdfd717e6a320cf44b4afac2b0732d9fcbe2b7fa0cf601926103b59284920190610637565b5060208281015180516103ce9260018501920190610637565b50604082015180516103ea916002840191602090910190610637565b50606082015160038201556080909101516004909101805460ff19169115159190911790556001805460009161041f91610958565b600081815260026020908152604080832080546001600160a01b03191633908117909155835260039091528120805492935060019290919061046290849061096f565b90915550506040517f187b4ad7617e310bfb0a7e79b0c000dad66f75c939f8ae8e8feed7ab51f3283b906104a190839089908990899089908990610987565b60405180910390a1505050505050565b6000546001600160a01b031633146105105760405162461bcd60e51b815260206004820181905260248201527f4f776e61626c653a2063616c6c6572206973206e6f7420746865206f776e657260448201526064015b60405180910390fd5b61051a60006105e7565b565b6000546001600160a01b031633146105765760405162461bcd60e51b815260206004820181905260248201527f4f776e61626c653a2063616c6c6572206973206e6f7420746865206f776e65726044820152606401610507565b6001600160a01b0381166105db5760405162461bcd60e51b815260206004820152602660248201527f4f776e61626c653a206e6577206f776e657220697320746865207a65726f206160448201526564647265737360d01b6064820152608401610507565b6105e4816105e7565b50565b600080546001600160a01b038381166001600160a01b0319831681178455604051919092169283917f8be0079c531659141344cd1fd0a4f28419497f9722a3daafe3b4186f6b6457e09190a35050565b82805461064390610908565b90600052602060002090601f01602090048101928261066557600085556106ab565b82601f1061067e57805160ff19168380011785556106ab565b828001600101855582156106ab579182015b828111156106ab578251825591602001919060010190610690565b506106b79291506106bb565b5090565b5b808211156106b757600081556001016106bc565b6000602082840312156106e257600080fd5b5035919050565b6000815180845260005b8181101561070f576020818501810151868301820152016106f3565b81811115610721576000602083870101525b50601f01601f19169290920160200192915050565b60a08152600061074960a08301886106e9565b828103602084015261075b81886106e9565b9050828103604084015261076f81876106e9565b606084019590955250509015156080909101529392505050565b634e487b7160e01b600052604160045260246000fd5b600082601f8301126107b057600080fd5b813567ffffffffffffffff808211156107cb576107cb610789565b604051601f8301601f19908116603f011681019082821181831017156107f3576107f3610789565b8160405283815286602085880101111561080c57600080fd5b836020870160208301376000602085830101528094505050505092915050565b600080600080600060a0868803121561084457600080fd5b853567ffffffffffffffff8082111561085c57600080fd5b61086889838a0161079f565b9650602088013591508082111561087e57600080fd5b61088a89838a0161079f565b955060408801359150808211156108a057600080fd5b506108ad8882890161079f565b93505060608601359150608086013580151581146108ca57600080fd5b809150509295509295909350565b6000602082840312156108ea57600080fd5b81356001600160a01b038116811461090157600080fd5b9392505050565b600181811c9082168061091c57607f821691505b60208210810361093c57634e487b7160e01b600052602260045260246000fd5b50919050565b634e487b7160e01b600052601160045260246000fd5b60008282101561096a5761096a610942565b500390565b6000821982111561098257610982610942565b500190565b86815260c0602082015260006109a060c08301886106e9565b82810360408401526109b281886106e9565b905082810360608401526109c681876106e9565b6080840195909552505090151560a09091015294935050505056fea264697066735822122058b938827a8afa3d6be76dc914a2c463c195861ea43479391994ac8fcf371b8b64736f6c634300080d0033",
  "immutableReferences": {},
  "source": "// SPDX-License-Identifier: MIT\npragma solidity ^0.8;\nimport \"@openzeppelin/contracts/access/Ownable.sol\";\n\ncontract FlyerFactory is Ownable{\n    struct Flyer {\n        string name;\n        string description;\n        string image;\n        uint price;\n        bool status;\n    }\n\n    Flyer[] public flyers;\n\n    event NewFlyer(uint id, string name, string description, string image, uint price, bool status);\n\n    mapping (uint => address) public flyerToOwner;\n    mapping (address => uint) public ownerFlyerCount;\n\n    function createFlyer(string memory _name, string memory _description, string memory _image, uint _price, bool _status) public{\n        flyers.push(Flyer(_name,_description,_image,_price,_status));\n        uint id = flyers.length - 1;\n        flyerToOwner[id] = msg.sender;\n        ownerFlyerCount[msg.sender] += 1;\n        emit NewFlyer(id,_name,_description,_image,_price,_status);\n    }\n}\n",
  "sourcePath": "/home/roman/Projets/WEB3/DeFlyers/contracts/flyerfactory.sol",
  "compiler": {
    "name": "solc",
    "version": "0.8.13+commit.abaa5c0e.Emscripten.clang"
  },
  "schemaVersion": "3.4.6",
  "updatedAt": "2022-04-08T22:01:34.967Z",
  "devdoc": {
    "kind": "dev",
    "methods": {
      "owner()": {
        "details": "Returns the address of the current owner."
      },
      "renounceOwnership()": {
        "details": "Leaves the contract without owner. It will not be possible to call `onlyOwner` functions anymore. Can only be called by the current owner. NOTE: Renouncing ownership will leave the contract without an owner, thereby removing any functionality that is only available to the owner."
      },
      "transferOwnership(address)": {
        "details": "Transfers ownership of the contract to a new account (`newOwner`). Can only be called by the current owner."
      }
    },
    "version": 1
  },
  "userdoc": {
    "kind": "user",
    "methods": {},
    "version": 1
  }
}