{
  "contractName": "FlyerOwnership",
  "abi": [
    {
      "inputs": [],
      "stateMutability": "nonpayable",
      "type": "constructor"
    },
    {
      "anonymous": false,
      "inputs": [
        {
          "indexed": true,
          "internalType": "address",
          "name": "owner",
          "type": "address"
        },
        {
          "indexed": true,
          "internalType": "address",
          "name": "approved",
          "type": "address"
        },
        {
          "indexed": true,
          "internalType": "uint256",
          "name": "tokenId",
          "type": "uint256"
        }
      ],
      "name": "Approval",
      "type": "event"
    },
    {
      "anonymous": false,
      "inputs": [
        {
          "indexed": true,
          "internalType": "address",
          "name": "owner",
          "type": "address"
        },
        {
          "indexed": true,
          "internalType": "address",
          "name": "operator",
          "type": "address"
        },
        {
          "indexed": false,
          "internalType": "bool",
          "name": "approved",
          "type": "bool"
        }
      ],
      "name": "ApprovalForAll",
      "type": "event"
    },
    {
      "anonymous": false,
      "inputs": [
        {
          "indexed": false,
          "internalType": "uint256",
          "name": "id",
          "type": "uint256"
        },
        {
          "indexed": false,
          "internalType": "string",
          "name": "name",
          "type": "string"
        },
        {
          "indexed": false,
          "internalType": "string",
          "name": "description",
          "type": "string"
        },
        {
          "indexed": false,
          "internalType": "string",
          "name": "image",
          "type": "string"
        },
        {
          "indexed": false,
          "internalType": "uint256",
          "name": "price",
          "type": "uint256"
        },
        {
          "indexed": false,
          "internalType": "bool",
          "name": "status",
          "type": "bool"
        }
      ],
      "name": "NewFlyer",
      "type": "event"
    },
    {
      "anonymous": false,
      "inputs": [
        {
          "indexed": true,
          "internalType": "address",
          "name": "previousOwner",
          "type": "address"
        },
        {
          "indexed": true,
          "internalType": "address",
          "name": "newOwner",
          "type": "address"
        }
      ],
      "name": "OwnershipTransferred",
      "type": "event"
    },
    {
      "anonymous": false,
      "inputs": [
        {
          "indexed": true,
          "internalType": "address",
          "name": "from",
          "type": "address"
        },
        {
          "indexed": true,
          "internalType": "address",
          "name": "to",
          "type": "address"
        },
        {
          "indexed": true,
          "internalType": "uint256",
          "name": "tokenId",
          "type": "uint256"
        }
      ],
      "name": "Transfer",
      "type": "event"
    },
    {
      "inputs": [
        {
          "internalType": "string",
          "name": "_name",
          "type": "string"
        },
        {
          "internalType": "string",
          "name": "_description",
          "type": "string"
        },
        {
          "internalType": "string",
          "name": "_image",
          "type": "string"
        },
        {
          "internalType": "uint256",
          "name": "_price",
          "type": "uint256"
        },
        {
          "internalType": "bool",
          "name": "_status",
          "type": "bool"
        }
      ],
      "name": "createFlyer",
      "outputs": [],
      "stateMutability": "nonpayable",
      "type": "function"
    },
    {
      "inputs": [
        {
          "internalType": "uint256",
          "name": "",
          "type": "uint256"
        }
      ],
      "name": "flyerToOwner",
      "outputs": [
        {
          "internalType": "address",
          "name": "",
          "type": "address"
        }
      ],
      "stateMutability": "view",
      "type": "function"
    },
    {
      "inputs": [
        {
          "internalType": "uint256",
          "name": "",
          "type": "uint256"
        }
      ],
      "name": "flyers",
      "outputs": [
        {
          "internalType": "string",
          "name": "name",
          "type": "string"
        },
        {
          "internalType": "string",
          "name": "description",
          "type": "string"
        },
        {
          "internalType": "string",
          "name": "image",
          "type": "string"
        },
        {
          "internalType": "uint256",
          "name": "price",
          "type": "uint256"
        },
        {
          "internalType": "bool",
          "name": "status",
          "type": "bool"
        }
      ],
      "stateMutability": "view",
      "type": "function"
    },
    {
      "inputs": [
        {
          "internalType": "uint256",
          "name": "tokenId",
          "type": "uint256"
        }
      ],
      "name": "getApproved",
      "outputs": [
        {
          "internalType": "address",
          "name": "",
          "type": "address"
        }
      ],
      "stateMutability": "view",
      "type": "function"
    },
    {
      "inputs": [
        {
          "internalType": "address",
          "name": "owner",
          "type": "address"
        },
        {
          "internalType": "address",
          "name": "operator",
          "type": "address"
        }
      ],
      "name": "isApprovedForAll",
      "outputs": [
        {
          "internalType": "bool",
          "name": "",
          "type": "bool"
        }
      ],
      "stateMutability": "view",
      "type": "function"
    },
    {
      "inputs": [],
      "name": "name",
      "outputs": [
        {
          "internalType": "string",
          "name": "",
          "type": "string"
        }
      ],
      "stateMutability": "view",
      "type": "function"
    },
    {
      "inputs": [],
      "name": "owner",
      "outputs": [
        {
          "internalType": "address",
          "name": "",
          "type": "address"
        }
      ],
      "stateMutability": "view",
      "type": "function"
    },
    {
      "inputs": [
        {
          "internalType": "address",
          "name": "",
          "type": "address"
        }
      ],
      "name": "ownerFlyerCount",
      "outputs": [
        {
          "internalType": "uint256",
          "name": "",
          "type": "uint256"
        }
      ],
      "stateMutability": "view",
      "type": "function"
    },
    {
      "inputs": [],
      "name": "renounceOwnership",
      "outputs": [],
      "stateMutability": "nonpayable",
      "type": "function"
    },
    {
      "inputs": [
        {
          "internalType": "address",
          "name": "from",
          "type": "address"
        },
        {
          "internalType": "address",
          "name": "to",
          "type": "address"
        },
        {
          "internalType": "uint256",
          "name": "tokenId",
          "type": "uint256"
        }
      ],
      "name": "safeTransferFrom",
      "outputs": [],
      "stateMutability": "nonpayable",
      "type": "function"
    },
    {
      "inputs": [
        {
          "internalType": "address",
          "name": "from",
          "type": "address"
        },
        {
          "internalType": "address",
          "name": "to",
          "type": "address"
        },
        {
          "internalType": "uint256",
          "name": "tokenId",
          "type": "uint256"
        },
        {
          "internalType": "bytes",
          "name": "_data",
          "type": "bytes"
        }
      ],
      "name": "safeTransferFrom",
      "outputs": [],
      "stateMutability": "nonpayable",
      "type": "function"
    },
    {
      "inputs": [
        {
          "internalType": "address",
          "name": "operator",
          "type": "address"
        },
        {
          "internalType": "bool",
          "name": "approved",
          "type": "bool"
        }
      ],
      "name": "setApprovalForAll",
      "outputs": [],
      "stateMutability": "nonpayable",
      "type": "function"
    },
    {
      "inputs": [
        {
          "internalType": "bytes4",
          "name": "interfaceId",
          "type": "bytes4"
        }
      ],
      "name": "supportsInterface",
      "outputs": [
        {
          "internalType": "bool",
          "name": "",
          "type": "bool"
        }
      ],
      "stateMutability": "view",
      "type": "function"
    },
    {
      "inputs": [],
      "name": "symbol",
      "outputs": [
        {
          "internalType": "string",
          "name": "",
          "type": "string"
        }
      ],
      "stateMutability": "view",
      "type": "function"
    },
    {
      "inputs": [
        {
          "internalType": "uint256",
          "name": "tokenId",
          "type": "uint256"
        }
      ],
      "name": "tokenURI",
      "outputs": [
        {
          "internalType": "string",
          "name": "",
          "type": "string"
        }
      ],
      "stateMutability": "view",
      "type": "function"
    },
    {
      "inputs": [
        {
          "internalType": "address",
          "name": "newOwner",
          "type": "address"
        }
      ],
      "name": "transferOwnership",
      "outputs": [],
      "stateMutability": "nonpayable",
      "type": "function"
    },
    {
      "inputs": [
        {
          "internalType": "address",
          "name": "_owner",
          "type": "address"
        }
      ],
      "name": "balanceOf",
      "outputs": [
        {
          "internalType": "uint256",
          "name": "",
          "type": "uint256"
        }
      ],
      "stateMutability": "view",
      "type": "function"
    },
    {
      "inputs": [
        {
          "internalType": "uint256",
          "name": "_tokenId",
          "type": "uint256"
        }
      ],
      "name": "ownerOf",
      "outputs": [
        {
          "internalType": "address",
          "name": "",
          "type": "address"
        }
      ],
      "stateMutability": "view",
      "type": "function"
    },
    {
      "inputs": [
        {
          "internalType": "uint256",
          "name": "_tokenId",
          "type": "uint256"
        }
      ],
      "name": "getPrice",
      "outputs": [
        {
          "internalType": "uint256",
          "name": "",
          "type": "uint256"
        }
      ],
      "stateMutability": "view",
      "type": "function"
    },
    {
      "inputs": [
        {
          "internalType": "address",
          "name": "to",
          "type": "address"
        },
        {
          "internalType": "uint256",
          "name": "tokenId",
          "type": "uint256"
        }
      ],
      "name": "approve",
      "outputs": [],
      "stateMutability": "nonpayable",
      "type": "function"
    },
    {
      "inputs": [
        {
          "internalType": "address",
          "name": "_from",
          "type": "address"
        },
        {
          "internalType": "address",
          "name": "_to",
          "type": "address"
        },
        {
          "internalType": "uint256",
          "name": "_tokenId",
          "type": "uint256"
        }
      ],
      "name": "marketSend",
      "outputs": [],
      "stateMutability": "nonpayable",
      "type": "function"
    },
    {
      "inputs": [
        {
          "internalType": "address",
          "name": "_marketAddress",
          "type": "address"
        },
        {
          "internalType": "bool",
          "name": "state",
          "type": "bool"
        }
      ],
      "name": "manageMarket",
      "outputs": [],
      "stateMutability": "nonpayable",
      "type": "function"
    },
    {
      "inputs": [
        {
          "internalType": "uint256",
          "name": "_id",
          "type": "uint256"
        }
      ],
      "name": "closeSale",
      "outputs": [],
      "stateMutability": "nonpayable",
      "type": "function"
    },
    {
      "inputs": [
        {
          "internalType": "uint256",
          "name": "_id",
          "type": "uint256"
        }
      ],
      "name": "changeSaleStatus",
      "outputs": [],
      "stateMutability": "nonpayable",
      "type": "function"
    },
    {
      "inputs": [
        {
          "internalType": "address",
          "name": "_from",
          "type": "address"
        },
        {
          "internalType": "address",
          "name": "_to",
          "type": "address"
        },
        {
          "internalType": "uint256",
          "name": "_tokenId",
          "type": "uint256"
        }
      ],
      "name": "transferFrom",
      "outputs": [],
      "stateMutability": "nonpayable",
      "type": "function"
    }
  ],
  "bytecode": "0x6080604052600a80546001600160a01b031916301790553480156200002357600080fd5b50604051806040016040528060088152602001674465466c7965727360c01b8152506040518060400160405280600481526020016344464c5960e01b8152506200007c62000076620000b060201b60201c565b620000b4565b81516200009190600490602085019062000104565b508051620000a790600590602084019062000104565b505050620001e6565b3390565b600080546001600160a01b038381166001600160a01b0319831681178455604051919092169283917f8be0079c531659141344cd1fd0a4f28419497f9722a3daafe3b4186f6b6457e09190a35050565b8280546200011290620001aa565b90600052602060002090601f01602090048101928262000136576000855562000181565b82601f106200015157805160ff191683800117855562000181565b8280016001018555821562000181579182015b828111156200018157825182559160200191906001019062000164565b506200018f92915062000193565b5090565b5b808211156200018f576000815560010162000194565b600181811c90821680620001bf57607f821691505b602082108103620001e057634e487b7160e01b600052602260045260246000fd5b50919050565b611d6a80620001f66000396000f3fe608060405234801561001057600080fd5b50600436106101735760003560e01c8063715018a6116100de578063b88d4fde11610097578063e757223011610071578063e75722301461038e578063e985e9c5146103a1578063f2fde38b146103dd578063fff5ae4e146103f057600080fd5b8063b88d4fde14610355578063b91a56a114610368578063c87b56dd1461037b57600080fd5b8063715018a6146102ee5780638da5cb5b146102f657806395d89b4114610307578063a22cb4651461030f578063a4223d5314610322578063a6cf8b0d1461033557600080fd5b80633d729a36116101305780633d729a361461022c57806342842e0e1461023f578063443b09e8146102525780634710ca861461027b5780636352211e1461028e57806370a08231146102b757600080fd5b806301ffc9a71461017857806306fdde03146101a0578063081812fc146101b5578063095ea7b3146101e057806309d945be146101f557806323b872dd14610219575b600080fd5b61018b6101863660046116fe565b610403565b60405190151581526020015b60405180910390f35b6101a8610455565b6040516101979190611773565b6101c86101c3366004611786565b6104e7565b6040516001600160a01b039091168152602001610197565b6101f36101ee3660046117bb565b610581565b005b610208610203366004611786565b6105d5565b6040516101979594939291906117e5565b6101f3610227366004611838565b6107b7565b6101f361023a366004611930565b6108e2565b6101f361024d366004611838565b610a52565b6101c8610260366004611786565b6002602052600090815260409020546001600160a01b031681565b6101f3610289366004611786565b610a72565b6101c861029c366004611786565b6000908152600260205260409020546001600160a01b031690565b6102e06102c53660046119d3565b6001600160a01b031660009081526003602052604090205490565b604051908152602001610197565b6101f3610b6a565b6000546001600160a01b03166101c8565b6101a8610ba0565b6101f361031d3660046119ee565b610baf565b6101f3610330366004611786565b610bbe565b6102e06103433660046119d3565b60036020526000908152604090205481565b6101f3610363366004611a21565b610c3b565b6101f36103763660046119ee565b610cbd565b6101a8610389366004611786565b610d12565b6102e061039c366004611786565b610dfa565b61018b6103af366004611a9d565b6001600160a01b03918216600090815260096020908152604080832093909416825291909152205460ff1690565b6101f36103eb3660046119d3565b610e28565b6101f36103fe366004611838565b610ec0565b60006001600160e01b031982166380ac58cd60e01b148061043457506001600160e01b03198216635b5e139f60e01b145b8061044f57506301ffc9a760e01b6001600160e01b03198316145b92915050565b60606004805461046490611ac7565b80601f016020809104026020016040519081016040528092919081815260200182805461049090611ac7565b80156104dd5780601f106104b2576101008083540402835291602001916104dd565b820191906000526020600020905b8154815290600101906020018083116104c057829003601f168201915b5050505050905090565b6000818152600660205260408120546001600160a01b03166105655760405162461bcd60e51b815260206004820152602c60248201527f4552433732313a20617070726f76656420717565727920666f72206e6f6e657860448201526b34b9ba32b73a103a37b5b2b760a11b60648201526084015b60405180910390fd5b506000908152600860205260409020546001600160a01b031690565b60008181526002602052604090205481906001600160a01b031633146105a657600080fd5b506000908152600b6020526040902080546001600160a01b0319166001600160a01b0392909216919091179055565b600181815481106105e557600080fd5b906000526020600020906005020160009150905080600001805461060890611ac7565b80601f016020809104026020016040519081016040528092919081815260200182805461063490611ac7565b80156106815780601f1061065657610100808354040283529160200191610681565b820191906000526020600020905b81548152906001019060200180831161066457829003601f168201915b50505050509080600101805461069690611ac7565b80601f01602080910402602001604051908101604052809291908181526020018280546106c290611ac7565b801561070f5780601f106106e45761010080835404028352916020019161070f565b820191906000526020600020905b8154815290600101906020018083116106f257829003601f168201915b50505050509080600201805461072490611ac7565b80601f016020809104026020016040519081016040528092919081815260200182805461075090611ac7565b801561079d5780601f106107725761010080835404028352916020019161079d565b820191906000526020600020905b81548152906001019060200180831161078057829003601f168201915b50505050600383015460049093015491929160ff16905085565b6001600160a01b0382166107ca57600080fd5b6000818152600260205260409020546001600160a01b031633148061080557506000818152600b60205260409020546001600160a01b031633145b61080e57600080fd5b6000818152600260205260409020546001600160a01b0384811691161461083457600080fd5b6001600160a01b038316600090815260036020526040812080549161085883611b17565b90915550506001600160a01b038216600090815260036020526040812080549161088183611b2e565b909155505060008181526002602052604080822080546001600160a01b0319166001600160a01b0386811691821790925591518493918716917fddf252ad1be2c89b69c2b068fc378daa952ba7f163c4a11628f55a4df523b3ef91a4505050565b6040805160a081018252868152602080820187905291810185905260608101849052821515608082015260018054808201825560009190915281518051929360059092027fb10e2d527612073b26eecdfd717e6a320cf44b4afac2b0732d9fcbe2b7fa0cf60192610956928492019061164f565b50602082810151805161096f926001850192019061164f565b506040820151805161098b91600284019160209091019061164f565b50606082015160038201556080909101516004909101805460ff1916911515919091179055600180546000916109c091611b47565b600081815260026020908152604080832080546001600160a01b031916339081179091558352600390915281208054929350600192909190610a03908490611b5e565b90915550506040517f187b4ad7617e310bfb0a7e79b0c000dad66f75c939f8ae8e8feed7ab51f3283b90610a4290839089908990899089908990611b76565b60405180910390a1505050505050565b610a6d83838360405180602001604052806000815250610c3b565b505050565b6000818152600260205260409020546001600160a01b0316331480610aad57506000818152600b60205260409020546001600160a01b031633145b610ab657600080fd5b60018181548110610ac957610ac9611bd0565b600091825260209091206004600590920201015460ff1615610b2a57600060018281548110610afa57610afa611bd0565b60009182526020822060059190910201600401805460ff191692151592909217909155610b279082610581565b50565b6001808281548110610b3e57610b3e611bd0565b60009182526020909120600590910201600401805460ff1916911515919091179055610b273082610581565b6000546001600160a01b03163314610b945760405162461bcd60e51b815260040161055c90611be6565b610b9e6000610f84565b565b60606005805461046490611ac7565b610bba338383610fd4565b5050565b336000908152600c602052604090205460ff16610bda57600080fd5b600a54604051632388654360e11b8152600481018390526001600160a01b0390911690634710ca8690602401600060405180830381600087803b158015610c2057600080fd5b505af1158015610c34573d6000803e3d6000fd5b5050505050565b610c4533836110a2565b610cab5760405162461bcd60e51b815260206004820152603160248201527f4552433732313a207472616e736665722063616c6c6572206973206e6f74206f6044820152701ddb995c881b9bdc88185c1c1c9bdd9959607a1b606482015260840161055c565b610cb784848484611199565b50505050565b6000546001600160a01b03163314610ce75760405162461bcd60e51b815260040161055c90611be6565b6001600160a01b03919091166000908152600c60205260409020805460ff1916911515919091179055565b6000818152600660205260409020546060906001600160a01b0316610d915760405162461bcd60e51b815260206004820152602f60248201527f4552433732314d657461646174613a2055524920717565727920666f72206e6f60448201526e3732bc34b9ba32b73a103a37b5b2b760891b606482015260840161055c565b6000610da860408051602081019091526000815290565b90506000815111610dc85760405180602001604052806000815250610df3565b80610dd2846111cc565b604051602001610de3929190611c1b565b6040516020818303038152906040525b9392505050565b600060018281548110610e0f57610e0f611bd0565b9060005260206000209060050201600301549050919050565b6000546001600160a01b03163314610e525760405162461bcd60e51b815260040161055c90611be6565b6001600160a01b038116610eb75760405162461bcd60e51b815260206004820152602660248201527f4f776e61626c653a206e6577206f776e657220697320746865207a65726f206160448201526564647265737360d01b606482015260840161055c565b610b2781610f84565b336000908152600c602052604090205460ff16610edc57600080fd5b8060018181548110610ef057610ef0611bd0565b600091825260209091206004600590920201015460ff16610f1057600080fd5b600a546040516323b872dd60e01b81526001600160a01b038681166004830152858116602483015260448201859052909116906323b872dd90606401600060405180830381600087803b158015610f6657600080fd5b505af1158015610f7a573d6000803e3d6000fd5b5050505050505050565b600080546001600160a01b038381166001600160a01b0319831681178455604051919092169283917f8be0079c531659141344cd1fd0a4f28419497f9722a3daafe3b4186f6b6457e09190a35050565b816001600160a01b0316836001600160a01b0316036110355760405162461bcd60e51b815260206004820152601960248201527f4552433732313a20617070726f766520746f2063616c6c657200000000000000604482015260640161055c565b6001600160a01b03838116600081815260096020908152604080832094871680845294825291829020805460ff191686151590811790915591519182527f17307eab39ab6107e8899845ad3d59bd9653f200f220920489ca2b5937696c31910160405180910390a3505050565b6000818152600660205260408120546001600160a01b031661111b5760405162461bcd60e51b815260206004820152602c60248201527f4552433732313a206f70657261746f7220717565727920666f72206e6f6e657860448201526b34b9ba32b73a103a37b5b2b760a11b606482015260840161055c565b6000611126836112cd565b9050806001600160a01b0316846001600160a01b031614806111615750836001600160a01b0316611156846104e7565b6001600160a01b0316145b8061119157506001600160a01b0380821660009081526009602090815260408083209388168352929052205460ff165b949350505050565b6111a4848484611344565b6111b0848484846114e0565b610cb75760405162461bcd60e51b815260040161055c90611c4a565b6060816000036111f35750506040805180820190915260018152600360fc1b602082015290565b8160005b811561121d578061120781611b2e565b91506112169050600a83611cb2565b91506111f7565b60008167ffffffffffffffff81111561123857611238611874565b6040519080825280601f01601f191660200182016040528015611262576020820181803683370190505b5090505b841561119157611277600183611b47565b9150611284600a86611cc6565b61128f906030611b5e565b60f81b8183815181106112a4576112a4611bd0565b60200101906001600160f81b031916908160001a9053506112c6600a86611cb2565b9450611266565b6000818152600660205260408120546001600160a01b03168061044f5760405162461bcd60e51b815260206004820152602960248201527f4552433732313a206f776e657220717565727920666f72206e6f6e657869737460448201526832b73a103a37b5b2b760b91b606482015260840161055c565b826001600160a01b0316611357826112cd565b6001600160a01b0316146113bb5760405162461bcd60e51b815260206004820152602560248201527f4552433732313a207472616e736665722066726f6d20696e636f72726563742060448201526437bbb732b960d91b606482015260840161055c565b6001600160a01b03821661141d5760405162461bcd60e51b8152602060048201526024808201527f4552433732313a207472616e7366657220746f20746865207a65726f206164646044820152637265737360e01b606482015260840161055c565b6114286000826115e1565b6001600160a01b0383166000908152600760205260408120805460019290611451908490611b47565b90915550506001600160a01b038216600090815260076020526040812080546001929061147f908490611b5e565b909155505060008181526006602052604080822080546001600160a01b0319166001600160a01b0386811691821790925591518493918716917fddf252ad1be2c89b69c2b068fc378daa952ba7f163c4a11628f55a4df523b3ef91a4505050565b60006001600160a01b0384163b156115d657604051630a85bd0160e11b81526001600160a01b0385169063150b7a0290611524903390899088908890600401611cda565b6020604051808303816000875af192505050801561155f575060408051601f3d908101601f1916820190925261155c91810190611d17565b60015b6115bc573d80801561158d576040519150601f19603f3d011682016040523d82523d6000602084013e611592565b606091505b5080516000036115b45760405162461bcd60e51b815260040161055c90611c4a565b805181602001fd5b6001600160e01b031916630a85bd0160e11b149050611191565b506001949350505050565b600081815260086020526040902080546001600160a01b0319166001600160a01b0384169081179091558190611616826112cd565b6001600160a01b03167f8c5be1e5ebec7d5bd14f71427d1e84f3dd0314c0f7b2291e5b200ac8c7c3b92560405160405180910390a45050565b82805461165b90611ac7565b90600052602060002090601f01602090048101928261167d57600085556116c3565b82601f1061169657805160ff19168380011785556116c3565b828001600101855582156116c3579182015b828111156116c35782518255916020019190600101906116a8565b506116cf9291506116d3565b5090565b5b808211156116cf57600081556001016116d4565b6001600160e01b031981168114610b2757600080fd5b60006020828403121561171057600080fd5b8135610df3816116e8565b60005b8381101561173657818101518382015260200161171e565b83811115610cb75750506000910152565b6000815180845261175f81602086016020860161171b565b601f01601f19169290920160200192915050565b602081526000610df36020830184611747565b60006020828403121561179857600080fd5b5035919050565b80356001600160a01b03811681146117b657600080fd5b919050565b600080604083850312156117ce57600080fd5b6117d78361179f565b946020939093013593505050565b60a0815260006117f860a0830188611747565b828103602084015261180a8188611747565b9050828103604084015261181e8187611747565b606084019590955250509015156080909101529392505050565b60008060006060848603121561184d57600080fd5b6118568461179f565b92506118646020850161179f565b9150604084013590509250925092565b634e487b7160e01b600052604160045260246000fd5b600067ffffffffffffffff808411156118a5576118a5611874565b604051601f8501601f19908116603f011681019082821181831017156118cd576118cd611874565b816040528093508581528686860111156118e657600080fd5b858560208301376000602087830101525050509392505050565b600082601f83011261191157600080fd5b610df38383356020850161188a565b803580151581146117b657600080fd5b600080600080600060a0868803121561194857600080fd5b853567ffffffffffffffff8082111561196057600080fd5b61196c89838a01611900565b9650602088013591508082111561198257600080fd5b61198e89838a01611900565b955060408801359150808211156119a457600080fd5b506119b188828901611900565b935050606086013591506119c760808701611920565b90509295509295909350565b6000602082840312156119e557600080fd5b610df38261179f565b60008060408385031215611a0157600080fd5b611a0a8361179f565b9150611a1860208401611920565b90509250929050565b60008060008060808587031215611a3757600080fd5b611a408561179f565b9350611a4e6020860161179f565b925060408501359150606085013567ffffffffffffffff811115611a7157600080fd5b8501601f81018713611a8257600080fd5b611a918782356020840161188a565b91505092959194509250565b60008060408385031215611ab057600080fd5b611ab98361179f565b9150611a186020840161179f565b600181811c90821680611adb57607f821691505b602082108103611afb57634e487b7160e01b600052602260045260246000fd5b50919050565b634e487b7160e01b600052601160045260246000fd5b600081611b2657611b26611b01565b506000190190565b600060018201611b4057611b40611b01565b5060010190565b600082821015611b5957611b59611b01565b500390565b60008219821115611b7157611b71611b01565b500190565b86815260c060208201526000611b8f60c0830188611747565b8281036040840152611ba18188611747565b90508281036060840152611bb58187611747565b6080840195909552505090151560a090910152949350505050565b634e487b7160e01b600052603260045260246000fd5b6020808252818101527f4f776e61626c653a2063616c6c6572206973206e6f7420746865206f776e6572604082015260600190565b60008351611c2d81846020880161171b565b835190830190611c4181836020880161171b565b01949350505050565b60208082526032908201527f4552433732313a207472616e7366657220746f206e6f6e20455243373231526560408201527131b2b4bb32b91034b6b83632b6b2b73a32b960711b606082015260800190565b634e487b7160e01b600052601260045260246000fd5b600082611cc157611cc1611c9c565b500490565b600082611cd557611cd5611c9c565b500690565b6001600160a01b0385811682528416602082015260408101839052608060608201819052600090611d0d90830184611747565b9695505050505050565b600060208284031215611d2957600080fd5b8151610df3816116e856fea264697066735822122012f3b13480529d7825f726b7ba07abc140430980df665ec9720cdd134fc3350c64736f6c634300080d0033",
  "immutableReferences": {},
  "source": "// SPDX-License-Identifier: MIT\npragma solidity ^0.8;\nimport \"@openzeppelin/contracts/token/ERC721/ERC721.sol\";\nimport \"./flyerfactory.sol\";\nimport \"@openzeppelin/contracts/token/ERC721/IERC721.sol\";\nimport \"./IFlyerOwnership.sol\";\n\ncontract FlyerOwnership is FlyerFactory, ERC721 {\n    IFlyerOwnership thisContract = IFlyerOwnership(address(this));\n\n    modifier onlyOwnerOf(uint _id) {\n        require(flyerToOwner[_id] == msg.sender );\n        _;\n    }\n\n\n    modifier canBuy(uint _id) {\n        require(flyers[_id].status);\n        _;\n    }\n\n\n    mapping (uint => address) flyerApproval;\n    mapping (address => bool) approvedMarket;\n\n    modifier validMarket(){\n        require(approvedMarket[msg.sender]);\n        _;\n    }\n\n    constructor() ERC721(\"DeFlyers\",\"DFLY\") {\n    }\n    \n    function balanceOf(address _owner) public view virtual override returns (uint256){\n        return ownerFlyerCount[_owner];\n    }\n    function ownerOf(uint256 _tokenId) public view virtual override returns (address){\n        return flyerToOwner[_tokenId];\n    }\n\n    function getPrice(uint256 _tokenId) external view returns (uint){\n        return flyers[_tokenId].price;\n    }\n\n\n    function approve(address to, uint256 tokenId) public virtual override onlyOwnerOf(tokenId){\n        flyerApproval[tokenId] = to;\n    }\n\n\n    function marketSend(address _from,address _to,uint256 _tokenId) public validMarket() canBuy(_tokenId){\n        thisContract.transferFrom(_from,_to,_tokenId);\n    }\n\n    function manageMarket(address _marketAddress, bool state) external onlyOwner(){\n        approvedMarket[_marketAddress] = state;\n    }\n\n    // This contract is approved only if the status of the sale is true\n    function closeSale(uint _id) public validMarket(){\n        thisContract.changeSaleStatus(_id);\n    }\n\n    // Change the status of your flyer => if true someone can buy it\n    function changeSaleStatus(uint _id) public {\n        require(ownerOf(_id) == msg.sender || msg.sender == flyerApproval[_id]);\n        if(flyers[_id].status){\n            flyers[_id].status = false;\n            // Only the owner can transfer now\n            approve(address(0),_id);\n        }\n        else{\n            flyers[_id].status = true;\n            // The contract can transfer\n            approve(address(this),_id);\n        }\n    }\n\n    function transferFrom(address _from, address _to, uint256 _tokenId) public override {\n        require(_to != address(0));\n        require(msg.sender == flyerToOwner[_tokenId] || msg.sender == flyerApproval[_tokenId]);\n        require(_from == flyerToOwner[_tokenId]);\n        ownerFlyerCount[_from]--;\n        ownerFlyerCount[_to]++;\n        flyerToOwner[_tokenId] = _to;\n        emit Transfer(_from,_to,_tokenId);\n    }\n\n\n    \n}\n",
  "sourcePath": "/home/roman/Projets/WEB3/DeFlyers/contracts/flyerownership.sol",
  "compiler": {
    "name": "solc",
    "version": "0.8.13+commit.abaa5c0e.Emscripten.clang"
  },
  "schemaVersion": "3.4.6",
  "updatedAt": "2022-04-08T22:01:34.977Z",
  "devdoc": {
    "kind": "dev",
    "methods": {
      "approve(address,uint256)": {
        "details": "See {IERC721-approve}."
      },
      "getApproved(uint256)": {
        "details": "See {IERC721-getApproved}."
      },
      "isApprovedForAll(address,address)": {
        "details": "See {IERC721-isApprovedForAll}."
      },
      "name()": {
        "details": "See {IERC721Metadata-name}."
      },
      "owner()": {
        "details": "Returns the address of the current owner."
      },
      "renounceOwnership()": {
        "details": "Leaves the contract without owner. It will not be possible to call `onlyOwner` functions anymore. Can only be called by the current owner. NOTE: Renouncing ownership will leave the contract without an owner, thereby removing any functionality that is only available to the owner."
      },
      "safeTransferFrom(address,address,uint256)": {
        "details": "See {IERC721-safeTransferFrom}."
      },
      "safeTransferFrom(address,address,uint256,bytes)": {
        "details": "See {IERC721-safeTransferFrom}."
      },
      "setApprovalForAll(address,bool)": {
        "details": "See {IERC721-setApprovalForAll}."
      },
      "supportsInterface(bytes4)": {
        "details": "See {IERC165-supportsInterface}."
      },
      "symbol()": {
        "details": "See {IERC721Metadata-symbol}."
      },
      "tokenURI(uint256)": {
        "details": "See {IERC721Metadata-tokenURI}."
      },
      "transferOwnership(address)": {
        "details": "Transfers ownership of the contract to a new account (`newOwner`). Can only be called by the current owner."
      }
    },
    "version": 1
  },
  "userdoc": {
    "kind": "user",
    "methods": {},
    "version": 1
  }
}