{
  "contractName": "FlyerFactory",
  "abi": [
    {
      "anonymous": false,
      "inputs": [
        {
          "indexed": false,
          "internalType": "uint256",
          "name": "id",
          "type": "uint256"
        },
        {
          "indexed": false,
          "internalType": "string",
          "name": "name",
          "type": "string"
        },
        {
          "indexed": false,
          "internalType": "string",
          "name": "description",
          "type": "string"
        },
        {
          "indexed": false,
          "internalType": "string",
          "name": "image",
          "type": "string"
        },
        {
          "indexed": false,
          "internalType": "uint256",
          "name": "price",
          "type": "uint256"
        }
      ],
      "name": "NewFlyer",
      "type": "event"
    },
    {
      "anonymous": false,
      "inputs": [
        {
          "indexed": true,
          "internalType": "address",
          "name": "previousOwner",
          "type": "address"
        },
        {
          "indexed": true,
          "internalType": "address",
          "name": "newOwner",
          "type": "address"
        }
      ],
      "name": "OwnershipTransferred",
      "type": "event"
    },
    {
      "inputs": [
        {
          "internalType": "uint256",
          "name": "",
          "type": "uint256"
        }
      ],
      "name": "flyerToOwner",
      "outputs": [
        {
          "internalType": "address",
          "name": "",
          "type": "address"
        }
      ],
      "stateMutability": "view",
      "type": "function"
    },
    {
      "inputs": [
        {
          "internalType": "uint256",
          "name": "",
          "type": "uint256"
        }
      ],
      "name": "flyers",
      "outputs": [
        {
          "internalType": "string",
          "name": "name",
          "type": "string"
        },
        {
          "internalType": "string",
          "name": "description",
          "type": "string"
        },
        {
          "internalType": "string",
          "name": "image",
          "type": "string"
        },
        {
          "internalType": "uint256",
          "name": "price",
          "type": "uint256"
        }
      ],
      "stateMutability": "view",
      "type": "function"
    },
    {
      "inputs": [],
      "name": "owner",
      "outputs": [
        {
          "internalType": "address",
          "name": "",
          "type": "address"
        }
      ],
      "stateMutability": "view",
      "type": "function"
    },
    {
      "inputs": [
        {
          "internalType": "address",
          "name": "",
          "type": "address"
        }
      ],
      "name": "ownerFlyerCount",
      "outputs": [
        {
          "internalType": "uint256",
          "name": "",
          "type": "uint256"
        }
      ],
      "stateMutability": "view",
      "type": "function"
    },
    {
      "inputs": [],
      "name": "renounceOwnership",
      "outputs": [],
      "stateMutability": "nonpayable",
      "type": "function"
    },
    {
      "inputs": [
        {
          "internalType": "address",
          "name": "newOwner",
          "type": "address"
        }
      ],
      "name": "transferOwnership",
      "outputs": [],
      "stateMutability": "nonpayable",
      "type": "function"
    },
    {
      "inputs": [
        {
          "internalType": "string",
          "name": "_name",
          "type": "string"
        },
        {
          "internalType": "string",
          "name": "_description",
          "type": "string"
        },
        {
          "internalType": "string",
          "name": "_image",
          "type": "string"
        },
        {
          "internalType": "uint256",
          "name": "_price",
          "type": "uint256"
        }
      ],
      "name": "createFlyer",
      "outputs": [],
      "stateMutability": "nonpayable",
      "type": "function"
    }
  ],
  "bytecode": "0x608060405234801561001057600080fd5b5061002d61002261003260201b60201c565b61003a60201b60201c565b6100fe565b600033905090565b60008060009054906101000a900473ffffffffffffffffffffffffffffffffffffffff169050816000806101000a81548173ffffffffffffffffffffffffffffffffffffffff021916908373ffffffffffffffffffffffffffffffffffffffff1602179055508173ffffffffffffffffffffffffffffffffffffffff168173ffffffffffffffffffffffffffffffffffffffff167f8be0079c531659141344cd1fd0a4f28419497f9722a3daafe3b4186f6b6457e060405160405180910390a35050565b610f508061010d6000396000f3fe608060405234801561001057600080fd5b506004361061007d5760003560e01c80638da5cb5b1161005b5780638da5cb5b146100ef578063a6cf8b0d1461010d578063d328c4f31461013d578063f2fde38b146101595761007d565b806309d945be14610082578063443b09e8146100b5578063715018a6146100e5575b600080fd5b61009c600480360381019061009791906108ac565b610175565b6040516100ac9493929190610981565b60405180910390f35b6100cf60048036038101906100ca91906108ac565b61034d565b6040516100dc9190610a1c565b60405180910390f35b6100ed610380565b005b6100f7610408565b6040516101049190610a1c565b60405180910390f35b61012760048036038101906101229190610a63565b610431565b6040516101349190610a90565b60405180910390f35b61015760048036038101906101529190610be0565b610449565b005b610173600480360381019061016e9190610a63565b6105fc565b005b6001818154811061018557600080fd5b90600052602060002090600402016000915090508060000180546101a890610cca565b80601f01602080910402602001604051908101604052809291908181526020018280546101d490610cca565b80156102215780601f106101f657610100808354040283529160200191610221565b820191906000526020600020905b81548152906001019060200180831161020457829003601f168201915b50505050509080600101805461023690610cca565b80601f016020809104026020016040519081016040528092919081815260200182805461026290610cca565b80156102af5780601f10610284576101008083540402835291602001916102af565b820191906000526020600020905b81548152906001019060200180831161029257829003601f168201915b5050505050908060020180546102c490610cca565b80601f01602080910402602001604051908101604052809291908181526020018280546102f090610cca565b801561033d5780601f106103125761010080835404028352916020019161033d565b820191906000526020600020905b81548152906001019060200180831161032057829003601f168201915b5050505050908060030154905084565b60026020528060005260406000206000915054906101000a900473ffffffffffffffffffffffffffffffffffffffff1681565b6103886106f3565b73ffffffffffffffffffffffffffffffffffffffff166103a6610408565b73ffffffffffffffffffffffffffffffffffffffff16146103fc576040517f08c379a00000000000000000000000000000000000000000000000000000000081526004016103f390610d47565b60405180910390fd5b61040660006106fb565b565b60008060009054906101000a900473ffffffffffffffffffffffffffffffffffffffff16905090565b60036020528060005260406000206000915090505481565b6001604051806080016040528086815260200185815260200184815260200183815250908060018154018082558091505060019003906000526020600020906004020160009091909190915060008201518160000190805190602001906104b19291906107bf565b5060208201518160010190805190602001906104ce9291906107bf565b5060408201518160020190805190602001906104eb9291906107bf565b5060608201518160030155505060006001808054905061050b9190610d96565b9050336002600083815260200190815260200160002060006101000a81548173ffffffffffffffffffffffffffffffffffffffff021916908373ffffffffffffffffffffffffffffffffffffffff1602179055506001600360003373ffffffffffffffffffffffffffffffffffffffff1673ffffffffffffffffffffffffffffffffffffffff16815260200190815260200160002060008282546105af9190610dca565b925050819055507f103d8a0318863f4409aa9cd3ba0a3cd74b5d2becba34d0fbd6e3320f6c18d47881868686866040516105ed959493929190610e20565b60405180910390a15050505050565b6106046106f3565b73ffffffffffffffffffffffffffffffffffffffff16610622610408565b73ffffffffffffffffffffffffffffffffffffffff1614610678576040517f08c379a000000000000000000000000000000000000000000000000000000000815260040161066f90610d47565b60405180910390fd5b600073ffffffffffffffffffffffffffffffffffffffff168173ffffffffffffffffffffffffffffffffffffffff16036106e7576040517f08c379a00000000000000000000000000000000000000000000000000000000081526004016106de90610efa565b60405180910390fd5b6106f0816106fb565b50565b600033905090565b60008060009054906101000a900473ffffffffffffffffffffffffffffffffffffffff169050816000806101000a81548173ffffffffffffffffffffffffffffffffffffffff021916908373ffffffffffffffffffffffffffffffffffffffff1602179055508173ffffffffffffffffffffffffffffffffffffffff168173ffffffffffffffffffffffffffffffffffffffff167f8be0079c531659141344cd1fd0a4f28419497f9722a3daafe3b4186f6b6457e060405160405180910390a35050565b8280546107cb90610cca565b90600052602060002090601f0160209004810192826107ed5760008555610834565b82601f1061080657805160ff1916838001178555610834565b82800160010185558215610834579182015b82811115610833578251825591602001919060010190610818565b5b5090506108419190610845565b5090565b5b8082111561085e576000816000905550600101610846565b5090565b6000604051905090565b600080fd5b600080fd5b6000819050919050565b61088981610876565b811461089457600080fd5b50565b6000813590506108a681610880565b92915050565b6000602082840312156108c2576108c161086c565b5b60006108d084828501610897565b91505092915050565b600081519050919050565b600082825260208201905092915050565b60005b838110156109135780820151818401526020810190506108f8565b83811115610922576000848401525b50505050565b6000601f19601f8301169050919050565b6000610944826108d9565b61094e81856108e4565b935061095e8185602086016108f5565b61096781610928565b840191505092915050565b61097b81610876565b82525050565b6000608082019050818103600083015261099b8187610939565b905081810360208301526109af8186610939565b905081810360408301526109c38185610939565b90506109d26060830184610972565b95945050505050565b600073ffffffffffffffffffffffffffffffffffffffff82169050919050565b6000610a06826109db565b9050919050565b610a16816109fb565b82525050565b6000602082019050610a316000830184610a0d565b92915050565b610a40816109fb565b8114610a4b57600080fd5b50565b600081359050610a5d81610a37565b92915050565b600060208284031215610a7957610a7861086c565b5b6000610a8784828501610a4e565b91505092915050565b6000602082019050610aa56000830184610972565b92915050565b600080fd5b600080fd5b7f4e487b7100000000000000000000000000000000000000000000000000000000600052604160045260246000fd5b610aed82610928565b810181811067ffffffffffffffff82111715610b0c57610b0b610ab5565b5b80604052505050565b6000610b1f610862565b9050610b2b8282610ae4565b919050565b600067ffffffffffffffff821115610b4b57610b4a610ab5565b5b610b5482610928565b9050602081019050919050565b82818337600083830152505050565b6000610b83610b7e84610b30565b610b15565b905082815260208101848484011115610b9f57610b9e610ab0565b5b610baa848285610b61565b509392505050565b600082601f830112610bc757610bc6610aab565b5b8135610bd7848260208601610b70565b91505092915050565b60008060008060808587031215610bfa57610bf961086c565b5b600085013567ffffffffffffffff811115610c1857610c17610871565b5b610c2487828801610bb2565b945050602085013567ffffffffffffffff811115610c4557610c44610871565b5b610c5187828801610bb2565b935050604085013567ffffffffffffffff811115610c7257610c71610871565b5b610c7e87828801610bb2565b9250506060610c8f87828801610897565b91505092959194509250565b7f4e487b7100000000000000000000000000000000000000000000000000000000600052602260045260246000fd5b60006002820490506001821680610ce257607f821691505b602082108103610cf557610cf4610c9b565b5b50919050565b7f4f776e61626c653a2063616c6c6572206973206e6f7420746865206f776e6572600082015250565b6000610d316020836108e4565b9150610d3c82610cfb565b602082019050919050565b60006020820190508181036000830152610d6081610d24565b9050919050565b7f4e487b7100000000000000000000000000000000000000000000000000000000600052601160045260246000fd5b6000610da182610876565b9150610dac83610876565b925082821015610dbf57610dbe610d67565b5b828203905092915050565b6000610dd582610876565b9150610de083610876565b9250827fffffffffffffffffffffffffffffffffffffffffffffffffffffffffffffffff03821115610e1557610e14610d67565b5b828201905092915050565b600060a082019050610e356000830188610972565b8181036020830152610e478187610939565b90508181036040830152610e5b8186610939565b90508181036060830152610e6f8185610939565b9050610e7e6080830184610972565b9695505050505050565b7f4f776e61626c653a206e6577206f776e657220697320746865207a65726f206160008201527f6464726573730000000000000000000000000000000000000000000000000000602082015250565b6000610ee46026836108e4565b9150610eef82610e88565b604082019050919050565b60006020820190508181036000830152610f1381610ed7565b905091905056fea26469706673582212201680f93591e195c471cd041ddf25e00384bbad8baedffad0b98efedca56cf20464736f6c634300080d0033",
  "immutableReferences": {},
  "source": "pragma solidity ^0.8;\nimport \"@openzeppelin/contracts/access/Ownable.sol\";\n\ncontract FlyerFactory is Ownable{\n    struct Flyer {\n        string name;\n        string description;\n        string image;\n        uint price;\n    }\n\n    Flyer[] public flyers;\n\n    event NewFlyer(uint id, string name, string description, string image, uint price);\n\n    mapping (uint => address) public flyerToOwner;\n    mapping (address => uint) public ownerFlyerCount;\n\n    function createFlyer(string memory _name, string memory _description, string memory _image, uint _price) public{\n        flyers.push(Flyer(_name,_description,_image,_price));\n        uint id = flyers.length - 1;\n        flyerToOwner[id] = msg.sender;\n        ownerFlyerCount[msg.sender] += 1;\n        emit NewFlyer(id,_name,_description,_image,_price);\n    }\n}\n",
  "sourcePath": "/home/roman/Projets/WEB3/DeFlyers/contracts/flyerfactory.sol",
  "compiler": {
    "name": "solc",
    "version": "0.8.13+commit.abaa5c0e.Emscripten.clang"
  },
  "schemaVersion": "3.4.6",
  "updatedAt": "2022-04-07T18:16:00.239Z",
  "devdoc": {
    "kind": "dev",
    "methods": {
      "owner()": {
        "details": "Returns the address of the current owner."
      },
      "renounceOwnership()": {
        "details": "Leaves the contract without owner. It will not be possible to call `onlyOwner` functions anymore. Can only be called by the current owner. NOTE: Renouncing ownership will leave the contract without an owner, thereby removing any functionality that is only available to the owner."
      },
      "transferOwnership(address)": {
        "details": "Transfers ownership of the contract to a new account (`newOwner`). Can only be called by the current owner."
      }
    },
    "version": 1
  },
  "userdoc": {
    "kind": "user",
    "methods": {},
    "version": 1
  }
}